:020000040800F2
:1000000000000320B9020008C54A0008C94A0008D8
:10001000CD4A0008D14A0008D54A00080000000077
:10002000000000000000000000000000D94A0008A5
:10003000DD4A000800000000E14A0008E54A000827
:10004000E5020008E5020008E5020008E5020008F4
:10005000E5020008E5020008E5020008E5020008E4
:10006000E5020008E5020008E5020008E5020008D4
:10007000E5020008E5020008E5020008E5020008C4
:10008000E5020008E5020008E5020008E5020008B4
:10009000E5020008E5020008E5020008E5020008A4
:1000A000E5020008E5020008E5020008E502000894
:1000B000E5020008E5020008E5020008E502000884
:1000C000E5020008E5020008E5020008E502000874
:1000D000E5020008E5020008E5020008E502000864
:1000E000E5020008E5020008E5020008E502000854
:1000F000E5020008E5020008E5020008E502000844
:10010000E5020008E5020008E5020008E502000833
:10011000E5020008E5020008E5020008E502000823
:10012000E5020008E5020008E5020008E502000813
:10013000E5020008E5020008E5020008E502000803
:10014000E5020008E5020008E5020008E5020008F3
:10015000E5020008E5020008E5020008E5020008E3
:10016000E5020008E5020008E5020008E5020008D3
:10017000E5020008E5020008E502000800000000B2
:10018000E5020008E5020008E5020008E5020008B3
:10019000E5020008E5020008E5020008E5020008A3
:1001A000E5020008E5020008E502000800B583B09A
:1001B000304B314A1360314A1360314B31490022D0
:1001C00001E01A6004338B42FBD32B4B1B6813B93D
:1001D0002A4B1B6803B1FEE7264B2B4A13602B4AC0
:1001E00013602B4B2B4A2C4803E011681960043331
:1001F00004328342F9D3244B1A68284B9A4204D123
:10020000224B1A681B689A4200D0FEE703F01CFDDF
:1002100001A8694603F0B8FC214B224EF61AB6102D
:1002200000241D4603E055F8243098470134A642C7
:10023000F9DC1D4B1D4EF61AB61000241D4603E0D6
:1002400055F8243098470134A642F9DC019800990A
:1002500003F0DCFE0546164B164CE41AA4101E46AD
:1002600003E0013C56F824309847002CF9DC28467E
:1002700003F05CFCBABADECABC0000209803002080
:10028000BC0000209C03002000000020B8000020DB
:1002900000000020C8700008BC000020785634120E
:1002A000E8020008E8020008E8020008E802000886
:1002B000E8020008E802000808B5FFF777FF00BF72
:1002C000FEE700BFFEE700BFFEE700BFFEE700BF9E
:1002D000FEE700BFFEE700BFFEE700BFFEE700BF8E
:0802E000FEE700BFFEE700BFCE
:1002E80010B5044602F038FB064BA3FB002080093A
:1002F80000F0ACF84FF0FF302146002200F058F82B
:10030800002010BDD34D621008B50B4B1A6842F49B
:1003180000721A601A6842F480621A601A6842F41D
:1003280080721A60032000F025F80F20FFF7D8FF2D
:1003380001F08EFE002008BD003C0240024B1A6806
:1003480001321A60704700BFC0000020014B1868D6
:10035800704700BFC000002010B582B00190FFF7C1
:10036800F5FF0446FFF7F2FF001B019B9842F9D303
:1003780002B010BD10B50446C31E042B03D90A48A9
:10038800A42103F005FC04F00704084BD86820F406
:10039800E0600004000C40EA042040F0BF6040F434
:1003A8000030D86010BD00BF3453000800ED00E0F5
:1003B80070B506460D4614460F2A03D91A48BC21C3
:1003C80003F0E6FB0F2D03D91748BD2103F0E0FB2E
:1003D800164BDB68C3F30223C3F10701042928BFC6
:1003E80004211A1D062A8CBF033B0023012202FAAE
:1003F80001F101390D409D4002FA03F3013B1C4015
:100408002C43002E06DA06F00F062401E4B2084B4E
:100418009C5570BD2401E4B206F1604000F56140CE
:1004280080F8004370BD00BF3453000800ED00E0C1
:1004380014ED00E0420900F01F00012303FA00F068
:10044800014B43F82200704700E100E00138B0F1A9
:10045800807F0AD2064B5860F021064A82F82310A2
:100468000020986007221A6070470120704700BF7B
:1004780010E000E000ED00E010B50446002800F0B0
:10048800FE8003687F4A934231D0183293422ED0BF
:10049800183293422BD01832934228D01832934204
:1004A80025D01832934222D0183293421FD01832E6
:1004B80093421CD002F55672934218D018329342D8
:1004C80015D01832934212D0183293420FD01832F6
:1004D80093420CD01832934209D01832934206D076
:1004E8001832934203D06848B52103F051FB636882
:1004F800C3B1B3F1007F15D0B3F1806F12D0B3F15F
:10050800C06F0FD0B3F1006F0CD0B3F1206F09D0DA
:10051800B3F1406F06D0B3F1606F03D05A48B621EB
:1005280003F036FBA3683BB1402B05D0802B03D0EA
:100538005548B72103F02CFBE368B3F5007F04D0DE
:100548001BB15148B82103F023FB2369B3F5806F31
:1005580004D01BB14C48B92103F01AFB63694BB1B5
:10056800B3F5006F06D0B3F5805F03D04648BA21D3
:1005780003F00EFBA3694BB1B3F5005F06D0B3F5EA
:10058800804F03D04048BB2103F002FBE36943B12D
:10059800B3F5807F05D0202B03D03B48BC2103F066
:1005A800F7FA236A63B1B3F5803F09D0B3F5003F8A
:1005B80006D0B3F5403F03D03348BD2103F0E8FA35
:1005C800636A2BB1042B03D02F48BE2103F0E0FA55
:1005D800636A23B3A36A032B03D92B48C32103F00F
:1005E800D7FAE36A63B1B3F5000F09D0B3F1807F9E
:1005F80006D0B3F1C07F03D02348C42103F0C8FA62
:10060800236B63B1B3F5001F09D0B3F5800F06D093
:10061800B3F5C00F03D01C48C52103F0B9FA022373
:1006280084F8353022681168184B0B406068A1685F
:100638000843E16808432169084361690843A169DF
:100648000843E1690843216A01430B43616A0429AD
:1006580003D1E06A216B01430B4313602368596996
:1006680021F00701626A1143042A04BFA26A1143F8
:1006780059610020E064012384F8353010BD012061
:1006880010BD00BF10600240685300083F8014F09E
:100698000346002800F0F48690F83520D2B2022AEA
:1006A80000F0F0860268116821F00101116001680C
:1006B80000220A6001684A6001688A600168CA60AD
:1006C80001680A610268212151610268A8498A42C9
:1006D80053D9A1F589618A424BD001F580618A42DC
:1006E80045D0A1F568718A423FD001F580618A4200
:1006F80039D0A1F589618A4232D001F580618A42F8
:100708002BD0A1F568718A4224D001F580618A4214
:100718001DD0A1F589618A4216D001F580618A420F
:100728000FD0A1F568718A4208D001F580618A422C
:1007380014BF4FF080714FF480211BE04FF48021EB
:1007480018E04FF4802115E04FF4802112E04FF4B7
:1007580080710FE04FF480710CE04FF4807109E074
:100768004FF4807106E0834904E0824902E0814940
:1007780000E08049804AD1600BE180498A4252D921
:10078800A8398A424BD001F580618A4245D0A1F54B
:1007980068718A423FD001F580618A4239D0A1F55B
:1007A80089618A4232D001F580618A422BD0A1F555
:1007B80068718A4224D001F580618A421DD0A1F572
:1007C80089618A4216D001F580618A420FD0A1F56D
:1007D80068718A4208D001F580618A4214BF4FF0DF
:1007E80080714FF480211BE04FF4802118E04FF412
:1007F800802115E04FF4802112E04FF480710FE062
:100808004FF480710CE04FF4807109E04FF480716F
:1008180006E0584904E0574902E0564900E05549C6
:10082800554A9160B5E056498A4252D948398A42B8
:100838004BD001F580618A4245D0A1F568718A42A2
:100848003FD001F580618A4239D0A1F589618A4299
:1008580032D001F580618A422BD0A1F568718A42B5
:1008680024D001F580618A421DD0A1F589618A42B0
:1008780016D001F580618A420FD0A1F568718A42CD
:1008880008D001F580618A4214BF4FF080714FF49F
:1008980080211BE04FF4802118E04FF4802115E0FF
:1008A8004FF4802112E04FF480710FE04FF4807113
:1008B8000CE04FF4807109E04FF4807106E02D4997
:1008C80004E02C4902E02B4900E02A492D4AD16076
:1008D8005FE02D498A4259D001F580618A4245D0AE
:1008E800A1F568718A423FD001F580618A4239D00A
:1008F800A1F589618A4232D001F580618A422BD004
:10090800A1F568718A4224D001F580618A421DD020
:10091800A1F589618A4216D001F580618A420FD01B
:10092800A1F568718A4208D001F580618A4214BF36
:100938004FF080714FF4802129E04FF4802126E0A8
:100948004FF4802123E04FF4802120E04FF48071A0
:100958001DE04FF480711AE04FF4807117E04FF4F6
:10096800807114E0034912E0024910E001490EE0E9
:10097800586402400400800000640240B8600240ED
:10098800586002400060024010600240AA49AB4A29
:1009980091601A68AA498A4253D9A1F589618A42A5
:1009A8004BD001F580618A4245D0A1F568718A4231
:1009B8003FD001F580618A4239D0A1F589618A4228
:1009C80032D001F580618A422BD0A1F568718A4244
:1009D80024D001F580618A421DD0A1F589618A423F
:1009E80016D001F580618A420FD0A1F568718A425C
:1009F80008D001F580618A4214BF4FF000614FF4BE
:100A080000111BE04FF4001118E04FF4001115E03D
:100A18004FF4001112E04FF400610FE04FF4006151
:100A28000CE04FF4006109E04FF4006106E020217A
:100A380004E0202102E0202100E02021814AD16049
:100A48000BE181498A4252D9A8398A424BD001F533
:100A580080618A4245D0A1F568718A423FD001F58C
:100A680080618A4239D0A1F589618A4232D001F584
:100A780080618A422BD0A1F568718A4224D001F5A1
:100A880080618A421DD0A1F589618A4216D001F59C
:100A980080618A420FD0A1F568718A4208D001F5B9
:100AA80080618A4214BF4FF000614FF400111BE0CF
:100AB8004FF4001118E04FF4001115E04FF4001145
:100AC80012E04FF400610FE04FF400610CE04FF4C6
:100AD800006109E04FF4006106E0202104E02021D4
:100AE80002E0202100E02021564A9160B5E05749F4
:100AF8008A4252D948398A424BD001F580618A42EC
:100B080045D0A1F568718A423FD001F580618A42DB
:100B180039D0A1F589618A4232D001F580618A42D3
:100B28002BD0A1F568718A4224D001F580618A42F0
:100B38001DD0A1F589618A4216D001F580618A42EB
:100B48000FD0A1F568718A4208D001F580618A4208
:100B580014BF4FF000614FF400111BE04FF4001177
:100B680018E04FF4001115E04FF4001112E04FF4B3
:100B780000610FE04FF400610CE04FF4006109E000
:100B88004FF4006106E0202104E0202102E020214A
:100B980000E02021294AD1605FE02D498A4259D0DE
:100BA80001F580618A4245D0A1F568718A423FD03B
:100BB80001F580618A4239D0A1F589618A4232D033
:100BC80001F580618A422BD0A1F568718A4224D050
:100BD80001F580618A421DD0A1F589618A4216D04B
:100BE80001F580618A420FD0A1F568718A4208D068
:100BF80001F580618A4214BF4FF000614FF4001183
:100C080029E04FF4001126E04FF4001123E04FF4DF
:100C1800001120E04FF400611DE04FF400611AE07C
:100C28004FF4006117E04FF4006114E0202112E056
:100C3800202110E020210EE0040080000060024026
:100C48005864024000640240B860024058600240A4
:100C5800106002402021AA4A91601A68A9498A4274
:100C680053D9A1F589618A424BD001F580618A4246
:100C780045D0A1F568718A423FD001F580618A426A
:100C880039D0A1F589618A4232D001F580618A4262
:100C98002BD0A1F568718A4224D001F580618A427F
:100CA8001DD0A1F589618A4216D001F580618A427A
:100CB8000FD0A1F568718A4208D001F580618A4297
:100CC80014BF4FF000714FF400211BE04FF40021D6
:100CD80018E04FF4002115E04FF4002112E04FF422
:100CE80000710FE04FF400710CE04FF4007109E05F
:100CF8004FF4007106E0082104E0082102E0082111
:100D080000E00821804AD16009E180498A4252D92D
:100D1800A8398A424BD001F580618A4245D0A1F5B5
:100D280068718A423FD001F580618A4239D0A1F5C5
:100D380089618A4232D001F580618A422BD0A1F5BF
:100D480068718A4224D001F580618A421DD0A1F5DC
:100D580089618A4216D001F580618A420FD0A1F5D7
:100D680068718A4208D001F580618A4214BF4FF049
:100D780000714FF400211BE04FF4002118E04FF4FC
:100D8800002115E04FF4002112E04FF400710FE04C
:100D98004FF400710CE04FF4007109E04FF400715A
:100DA80006E0082104E0082102E0082100E008210B
:100DB800554A9160B3E056498A4252D948398A4225
:100DC8004BD001F580618A4245D0A1F568718A420D
:100DD8003FD001F580618A4239D0A1F589618A4204
:100DE80032D001F580618A422BD0A1F568718A4220
:100DF80024D001F580618A421DD0A1F589618A421B
:100E080016D001F580618A420FD0A1F568718A4237
:100E180008D001F580618A4214BF4FF000714FF489
:100E280000211BE04FF4002118E04FF4002115E0E9
:100E38004FF4002112E04FF400710FE04FF40071FD
:100E48000CE04FF4007109E04FF4007106E008214E
:100E580004E0082102E0082100E00821284AD160C6
:100E68005DE02C498A4257D001F580618A4245D01D
:100E7800A1F568718A423FD001F580618A4239D074
:100E8800A1F589618A4232D001F580618A422BD06E
:100E9800A1F568718A4224D001F580618A421DD08B
:100EA800A1F589618A4216D001F580618A420FD086
:100EB800A1F568718A4208D001F580618A4214BFA1
:100EC8004FF000714FF4002127E04FF4002124E097
:100ED8004FF4002121E04FF400211EE04FF400718F
:100EE8001BE04FF4007118E04FF4007115E04FF467
:100EF800007112E0082110E008210EE008210CE042
:100F0800006002405864024000640240B860024039
:100F180058600240106002400821A24A91601A6895
:100F2800A1498A424FD9A1F589618A4247D001F582
:100F380080618A4241D0A1F568718A423BD001F5AF
:100F480080618A4235D0A1F589618A422FD001F5A6
:100F580080618A4229D0A1F568718A4223D001F5BF
:100F680080618A421DD0A1F589618A4216D001F5B7
:100F780080618A420FD0A1F568718A4208D001F5D4
:100F880080618A4214BF4FF480014FF4803117E02A
:100F98004FF4803114E04FF4803111E04FF4803188
:100FA8000EE040210CE040210AE0402108E0402109
:100FB80006E07E4904E07D4902E07C4900E07B4987
:100FC8007B4AD160FFE07B498A424ED9A8398A42E0
:100FD80047D001F580618A4241D0A1F568718A4203
:100FE8003BD001F580618A4235D0A1F589618A42FA
:100FF8002FD001F580618A4229D0A1F568718A4213
:1010080023D001F580618A421DD0A1F589618A4209
:1010180016D001F580618A420FD0A1F568718A4225
:1010280008D001F580618A4214BF4FF480014FF463
:10103800803117E04FF4803114E04FF4803111E033
:101048004FF480310EE040210CE040210AE04021BD
:1010580008E0402106E0554904E0544902E05349BC
:1010680000E05249524A9160ADE053498A424ED954
:1010780048398A4247D001F580618A4241D0A1F5BA
:1010880068718A423BD001F580618A4235D0A1F56A
:1010980089618A422FD001F580618A4229D0A1F561
:1010A80068718A4223D001F580618A421DD0A1F57A
:1010B80089618A4216D001F580618A420FD0A1F574
:1010C80068718A4208D001F580618A4214BF4FF4E2
:1010D80080014FF4803117E04FF4803114E04FF471
:1010E800803111E04FF480310EE040210CE04021C6
:1010F8000AE0402108E0402106E02C4904E02B49A1
:1011080002E02A4900E02949264AD1605BE02B49E0
:101118008A4255D001F580618A4241D0A1F56871B3
:101128008A423BD001F580618A4235D0A1F58961B8
:101138008A422FD001F580618A4229D0A1F56871D1
:101148008A4223D001F580618A421DD0A1F58961C8
:101158008A4216D001F580618A420FD0A1F56871E4
:101168008A4208D001F580618A4214BF4FF4800199
:101178004FF4803125E04FF4803122E04FF4803184
:101188001FE04FF480311CE040211AE0402118E0B4
:10119800402116E0402114E0044912E0034910E020
:1011A80002490EE0006002405864024001008000DD
:1011B80000640240B860024058600240106002407B
:1011C800B149B24A91601A68B1498A4253D9A1F526
:1011D80089618A424BD001F580618A4245D0A1F5E8
:1011E80068718A423FD001F580618A4239D0A1F501
:1011F80089618A4232D001F580618A422BD0A1F5FB
:1012080068718A4224D001F580618A421DD0A1F517
:1012180089618A4216D001F580618A420FD0A1F512
:1012280068718A4208D001F580618A4214BF4FF084
:1012380080614FF480111BE04FF4801118E04FF4E7
:10124800801115E04FF4801112E04FF480610FE037
:101258004FF480610CE04FF4806109E04FF4806145
:1012680006E0102104E0102102E0102100E0102126
:10127800884AD160FDE088498A4252D9A8398A4211
:101288004BD001F580618A4245D0A1F568718A4248
:101298003FD001F580618A4239D0A1F589618A423F
:1012A80032D001F580618A422BD0A1F568718A425B
:1012B80024D001F580618A421DD0A1F589618A4256
:1012C80016D001F580618A420FD0A1F568718A4273
:1012D80008D001F580618A4214BF4FF080614FF455
:1012E80080111BE04FF4801118E04FF4801115E0D5
:1012F8004FF4801112E04FF480610FE04FF48061E9
:101308000CE04FF4806109E04FF4806106E01021A1
:1013180004E0102102E0102100E010215D4A9160F4
:10132800A7E05E498A4252D948398A424BD001F532
:1013380080618A4245D0A1F568718A423FD001F5A3
:1013480080618A4239D0A1F589618A4232D001F59B
:1013580080618A422BD0A1F568718A4224D001F5B8
:1013680080618A421DD0A1F589618A4216D001F5B3
:1013780080618A420FD0A1F568718A4208D001F5D0
:1013880080618A4214BF4FF080614FF480111BE0E6
:101398004FF4801118E04FF4801115E04FF48011DC
:1013A80012E04FF480610FE04FF480610CE04FF4DD
:1013B800806109E04FF4806106E0102104E010210B
:1013C80002E0102100E01021304AD16051E0344998
:1013D8008A424BD001F580618A4245D0A1F56871F7
:1013E8008A423FD001F580618A4239D0A1F58961EE
:1013F8008A4232D001F580618A422BD0A1F568710A
:101408008A4224D001F580618A421DD0A1F5896104
:101418008A4216D001F580618A420FD0A1F5687121
:101428008A4208D001F580618A4214BF4FF080617A
:101438004FF480111BE04FF4801118E04FF4801135
:1014480015E04FF4801112E04FF480610FE04FF483
:1014580080610CE04FF4806109E04FF4806106E0A0
:10146800102104E0102102E0102100E01021074AB9
:1014780091600020D86483F8350083F83400704701
:101488000120704701207047010080000060024081
:101498005864024000640240B8600240586002404C
:1014A8001060024030B40468029D45EA0343636457
:1014B8000368DA634368B3F5403F35D101F07F45EF
:1014C80001F47F0401F47F42C9B283681BB9224347
:1014D8001543294325E0012B02D12243114320E083
:1014E800022B07D1E40C920AE40244EA421242EACF
:1014F800D10116E0032B0AD1ED0FE40CD20AA402A5
:1015080044EA421242EAC53545EAD10109E02D0F05
:10151800240D120B240244EA021242EA053545EA78
:1015280011110368996301E00368D96030BC704702
:10153800704700BF10B5044600284DD00368274AFD
:10154800934203D02648B42102F022FB636863B1BA
:10155800B3F5803F09D0B3F5003F06D0B3F5403F5F
:1015680003D01F48B52102F013FBA368042B03D94D
:101578001B48B62102F00CFBE368B3F5804F03D398
:101588001748B72102F004FB94F8393013F0FF0F25
:1015980002D12046FFF7CCFF022384F839302368B4
:1015A800196821F4403162680A431A602368596B4C
:1015B80021F00701A2680A435A632268136C23F4D6
:1015C8007F5323F03F03E1680B4313640020E0637B
:1015D800012384F8393010BD012010BD00B002404D
:1015E800985300082DE9F04182B004468846174612
:1015F8001E46089D90F83830012B28D0012380F82A
:101608003830022380F83930B5F5803F04D31248CA
:101618004FF4B57102F0BCFAB6F5804F04D30E480A
:1016280040F26B1102F0B4FA23681A6822F0010242
:101638001A600095204641463A463346FFF732FF86
:1016480023681A6842F001021A60002000E00220B4
:1016580002B0BDE8F08100BF9853000870B5044699
:101668000D4603681B6813F0010F30D0FEF76EFEBD
:10167800064627E05A68596801F0010112F0200F68
:1016880000D159B120229A60236801209860042370
:1016980084F83930002384F8383070BDB5F1FF3F45
:1016A80010D025B1FEF752FE801BA8420AD90023AC
:1016B80084F83830E36B43F02003E363032084F8B5
:1016C800390070BD23685A6812F0020FD2D023681F
:1016D800DB6913F0200F24D0FEF738FE06461BE026
:1016E8005A6812F0080F06D008229A60042384F87A
:1016F8003930012070BDB5F1FF3F0DD025B1FEF79F
:1017080025FE801BA84207D9E36B43F02003E3635F
:10171800032084F8390070BD23685A6812F0100F4E
:10172800DED0236802229A60236810229A6001237F
:1017380084F83930002084F8380070BDF8B50446C4
:101748000F460E011836851990F83830012B00F035
:101758008380012380F83830022380F83930994299
:1017680004D93E4840F24A3102F012FAA359B3F5BF
:10177800804F04D3394840F24B3102F009FA6368CC
:10178800B3F5403F11D06B680A2B04D9334840F2B7
:101798004E3102F0FDF963683BB1AB68022B04D906
:1017A8002E4840F2513102F0F3F93FBB2268516AEA
:1017B8002B4B0B406968A1F109000128A86841EA90
:1017C8000041E8689ABF00F07F40084341EA0060A2
:1017D800034353622268936923F47F5323F03F0342
:1017E800A1590B4393616A68093A012A2DD8EA681E
:1017F80022F07F4213432268936226E02268D1696F
:10180800174B0B406968A1F109000128A86841EA53
:101818000041E8689ABF00F07F40084341EA006051
:101828000343D3612268136923F47F5323F03F03F2
:10183800A1590B4313616A68093A012A05D8EA6875
:1018480022F07F42134322681362012384F839305F
:10185800002084F83800F8BD0220F8BD985300082D
:10186800F0FFFC002DE9F84F07460D460B881BB921
:10187800B148C32102F08CF96B68012B22D9112BD6
:1018880020D0022B1ED0122B1CD0AC4A934219D068
:1018980002F58012934215D002F58012934211D0BE
:1018A800A2F5F81293420DD002F58012934209D0A6
:1018B80002F58012934205D0032B03D09E48C42121
:1018C80002F066F9AB68022B03D99B48C52102F0E8
:1018D8005FF900242BE1A2460126A6402B6803EA03
:1018E8000608B04540F022816B68022B01D0122B0C
:1018F80059D12B69002B45D0092B43D0002B41D05F
:10190800002B3FD0F3B3EBB3012B3BD03AD0022BE3
:1019180038D037D036D0032B34D0042B32D031D046
:1019280030D0052B2ED02DD0092B2BD0062B29D02B
:10193800092B27D0072B25D024D023D0082B21D042
:1019480020D01FD0092B1DD01CD00A2B1AD019D09B
:101958000B2B17D00C2B15D014D00D2B12D00F2B0E
:1019680010D0052B0ED00DD00CD0082B0AD009D0E2
:101978000C2B07D0062B05D00E2B03D06E48D62192
:1019880002F006F9E308083357F8231004F00702B9
:1019980092000F20904021EA0000296901FA02F222
:1019A800024347F823203A684FEA44094FF0030BF3
:1019B8000BFA09FB6FEA0B0B0BEA02026B6803F0E8
:1019C800030303FA09F313433B606B685A1E012AA9
:1019D80003D9112B01D0122B19D1EB68032B03D992
:1019E8005548E92102F0D4F8BA680BEA0202EB681C
:1019F80003FA09F31343BB607B6823EA06066B68A6
:101A0800C3F3001303FA0AFA4AEA06067E60FB6883
:101A18000BEA030BAB6803FA09F343EA0B03FB6019
:101A28006B6813F0805F00F08180454B5A6C42F47C
:101A380080425A64A308991C424A52F8210004F0D3
:101A4800030292000F21914020EA01013E4887429B
:101A580036D000F58060874230D000F5806087423C
:101A68002AD000F58060874224D000F58060874244
:101A78001ED000F58060874218D000F5806087424C
:101A880012D000F5806087420CD000F58060874254
:101A980006D000F58060874214BF0A20092010E0B4
:101AA80008200EE007200CE006200AE0052008E0E8
:101AB800042006E0032004E0022002E0012000E008
:101AC800002000FA02F20A4302331E4941F823209B
:101AD8001E4B1A686FEA080303EA0201686810F4EB
:101AE800803F18BF48EA0201184A1160526803EAA9
:101AF8000201686810F4003F18BF48EA0201134A5F
:101B08005160926803EA0201686810F4801F18BFE8
:101B180048EA02010D4A9160D2681340696811F4DD
:101B2800001F18BF48EA0203084AD36001340F2C8B
:101B38007FF6D1AEBDE8F88FC85300080000111039
:101B4800003802400038014000000240003C0140DB
:101B580070B5054614460E4621B908484FF4D371AE
:101B680002F016F8012C04D9044840F2A71102F03B
:101B78000FF80CB12E8370BD6E8370BDC85300087A
:101B8800F0B44C680368DD68C5F30B452C44D201FA
:101B98001344D3F8885005F47045C3F88850036897
:101BA800D6180D68DB68C3F30B431D44013545EABD
:101BB8000444C6F88840CC680368DE68C6F30A06A1
:101BC80026441344D3F88C4004F47044C3F88C4082
:101BD8000368D5188C68DB68C3F30A031C44631CCC
:101BE80043EA0644C5F88C4003681344D3F894408C
:101BF80024F00704C3F894400368134403F18404F1
:101C08000B69236191F831C091F832708E690368CD
:101C18001344D3F89C400024C3F89C400368134441
:101C280091F8305045EA0C2545EA074545EA06652E
:101C3800C3F89C5003681344D3F8985025F0FF0567
:101C4800C3F898500368134403F184054B696B612A
:101C580005681544D5F8A03023F4E06323F00703A2
:101C6800C5F8A0300368134403F18406CD690B6AF4
:101C78002B43F36103681344D3F8AC50C3F8AC406A
:101C88000368134403F184044B6AA3620B6963B1CC
:101C9800012B0CD0042B0CD0022B0CD0032B0CD016
:101CA800072B14BF0126022608E0042606E00326B7
:101CB80004E0022602E0022600E00226046814443A
:101CC800D4F8B05005F0E025C4F8B05004681444C6
:101CD8008B6A06FB03F3DD1C45EA0343C4F8B03006
:101CE80004681444D4F8B43023F4FF6323F00703E2
:101CF800C4F8B43003681344C96AC3F8B41003685D
:101D08001A44D2F8843043F00103C2F88430F0BC9E
:101D1800704700BF704700BF38B50446002800F080
:101D2800E1800368704A934203D070489F2101F014
:101D38002FFF6369B3F5805F03D36C48A02101F0DE
:101D480027FFA369B3F5006F03D36848A12101F009
:101D58001FFFE369B3F5805F03D36448A22101F054
:101D680017FF236AB3F5006F03D36048A32101F07E
:101D78000FFFA36AB3F5006F03D35C48A42101F0F9
:101D880007FF636AB3F5805F03D35848A52101F0C4
:101D9800FFFE236BB3F5006F03D35448A62101F06F
:101DA800F7FEE36AB3F5805F03D35048A72101F03B
:101DB800EFFE636833B1B3F1004F03D04B48A8215D
:101DC80001F0E6FEA36833B1B3F1804F03D0474872
:101DD800A92101F0DDFEE36833B1B3F1005F03D060
:101DE8004248AA2101F0D4FE236933B1B3F1805FE0
:101DF80003D03E48AB2101F0CBFE94F8A13013F09C
:101E0800FF0F02D12046FFF785FF022384F8A13097
:101E180023689A6922F070429A6123689D69616813
:101E2800A0680843E168014322690A432A439A618A
:101E3800226891682E4B1940916060692268956804
:101E4800A16941EA0041294391602268D16819409B
:101E5800D160E0692268D568216A41EA00412943D6
:101E6800D1602268116919401161606A2268156998
:101E7800A16A41EA004129431161226851690B4076
:101E88005361E16A23685869226B42EA01420243BE
:101E98005A6194F8350094F8362012042368D96AF8
:101EA80001F07F41D9622368D96A42EA002294F896
:101EB800340002430A43DA6223685A6B42F0040290
:101EC8005A6323685A6B42F002025A6323689A697C
:101ED80042F001029A610020C4F8A400012384F8AA
:101EE800A13038BD012038BD00680140F853000812
:101EF80000F800F02DE9F04107460E46904690F8AC
:101F0800A030012B00F08580012380F8A030022347
:101F180080F8A1309A4204D93F4840F2DB1101F021
:101F280037FE3369072B04D93B484FF4EE7101F0B3
:101F38002FFEF369B3F5806F07D0B3F5C06F04D0F7
:101F4800354840F2DD1101F023FE336A052B06D037
:101F5800072B04D030484FF4EF7101F019FE3368B5
:101F6800B3F5805F04D32C4840F2DF1101F010FE76
:101F78007368B3F5803F04D327484FF4F07101F03C
:101F880007FEB368B3F5805F04D3234840F2E1113C
:101F980001F0FEFDF368B3F5803F04D31E484FF40B
:101FA800F17101F0F5FDB369FF2B04D91A4840F22D
:101FB800E31101F0EDFDB36AB3F5005F04D31648F1
:101FC8004FF4F27101F0E4FDF36AB3F5006F04D346
:101FD800114840F2E51101F0DBFD342404FB0874DC
:101FE800383435460FCD0FC40FCD0FC40FCD0FC4F5
:101FF8002B682360384631464246FFF7C1FD3A68F0
:102008000123536287F8A130002087F8A000BDE8BB
:10201800F0810220BDE8F081F853000890F8A03064
:10202800012B11D0012380F8A030022280F8A120D2
:10203800064A916941F48031916180F8A13000230A
:1020480080F8A030184670470220704700680140A9
:10205800704700BF38B5174B1A6C42F080521A64AB
:102068000122154B1A60FEF771F90546134C05E07D
:10207800FEF76CF9401BB0F57A7F17D8636813F444
:10208800803FF5D001220E4B1A60FEF75FF9054636
:102098000A4C05E0FEF75AF9401BB0F57A7F07D8DD
:1020A800636813F4003FF5D0002038BD032038BD25
:1020B800032038BD0038024040000E420070004046
:1020C80044000E42F8B5044603680F2B03D9B24802
:1020D800FD2101F05DFD236813F0010F61D06368F5
:1020E800012B06D9052B04D0AB484FF4817101F0C0
:1020F8004FFDAA4B9B6803F00C03042B0AD0A74B97
:102108009B6803F00C03082B0ED1A44B5B6813F4F7
:10211800800F09D0A14B1B6813F4003F41D06368BE
:10212800012B40F0FF813CE000229D4B1A70FEF726
:102138000DF90746994D41F2883605E0FEF706F994
:10214800C01BB04200F2F0812B6813F4003FF5D1B8
:102158002279934B1A706368012B11D1FEF7F6F8B8
:1021680007468E4D41F2883605E0FEF7EFF8C01BB2
:10217800B04200F2DB812B6813F4003FF5D010E089
:10218800FEF7E4F80746854D41F2883605E0FEF78C
:10219800DDF8C01BB04200F2CB812B6813F4003F7E
:1021A800F5D1236813F0020F6ED0E368012B04D930
:1021B80079484FF4A17101F0EBFC23691F2B04D976
:1021C800754840F2431101F0E3FC744B9B6813F02F
:1021D8000C0F0AD0714B9B6803F00C03082B1DD120
:1021E8006E4B5B6813F4800F18D16C4B1B6813F0AF
:1021F800020F03D0E368012B40F09C81674B1A68FB
:1022080022F0F8022369F82191FAA1F1B1FA81F1DB
:10221800C9B28B401343614A136035E0E3680BB3DE
:102228000122604B1A60FEF791F806465B4D05E007
:10223800FEF78CF8801B642800F27E812B6813F06F
:10224800020FF5D0554B1A6822F0F8022369F821DD
:1022580091FAA1F1B1FA81F1C9B28B401A434F4BFF
:102268001A6011E000224F4B1A60FEF76FF806461D
:102278004A4D05E0FEF76AF8801B642800F25E818B
:102288002B6813F0020FF5D1236813F0080F2ED036
:102298006369012B04D940484FF4C17101F078FCFF
:1022A800636993B10122404B1A60FEF74FF8064666
:1022B8003A4D05E0FEF74AF8801B642800F2408199
:1022C8006B6F13F0020FF5D011E00022364B1A6045
:1022D800FEF73CF80646314D05E0FEF737F8801B5F
:1022E800642800F22F816B6F13F0020FF5D1236879
:1022F80013F0040F6FD0A368012B06D9052B04D067
:1023080025484FF4D67101F043FC244B1A6C42F077
:1023180080521A64A3F5E4331A6842F480721A6092
:10232800FEF714F80646214D05E0FEF70FF8801B6E
:10233800642800F209812B6813F4807FF5D000220D
:102348001B4B1A70FEF702F80746144D41F2883607
:1023580005E0FDF7FBFFC01BB04200F2F7802B6FD2
:1023680013F0020FF5D1227A114B1A70A368012BD2
:1023780020D1FDF7EBFF0746084D41F2883605E00E
:10238800FDF7E4FFC01BB04200F2E2802B6F13F0B0
:10239800020FF5D01FE000BF385400080038024093
:1023A8000238024000004742800E47420070004059
:1023B80070380240FDF7CAFF07466C4D41F2883677
:1023C80005E0FDF7C3FFC01BB04200F2C3802B6FCE
:1023D80013F0020FF5D1A369022B04D964484FF416
:1023E800F87101F0D5FBA369002B00F0B5805F4AB6
:1023F800926802F00C02082A00F0B080022B7ED10D
:10240800E3693BB1B3F5800F04D0594840F2F911A4
:1024180001F0BEFB236A3F2B04D955484FF4FD71E8
:1024280001F0B6FB636AC03BF02B04D9504840F278
:10243800FB1101F0ADFBA36A022B0AD0042B08D0D4
:10244800062B06D0082B04D049484FF4FE7101F042
:102458009FFBE36A043B0B2B04D9454840F2FD116E
:1024680001F096FB0022434B1A60FDF76FFF06460A
:102478003E4D04E0FDF76AFF801B642870D82B6886
:1024880013F0007FF6D1236A626A47F6C07191FAA9
:10249800A1F1B1FA81F1C9B28A4043EA0201A36A03
:1024A8005B085A1E4FF4403393FAA3F3B3FA83F34D
:1024B800DBB29A400A43E3691343E16A4FF0706262
:1024C80092FAA2F2B2FA82F2D2B201FA02F21A43F4
:1024D80042F00052254B5A600122264B1A60FDF744
:1024E80035FF0546214C04E0FDF730FF401B64280A
:1024F80038D8236813F0007FF6D00020F8BD0022FA
:102508001C4B1A60FDF722FF0546184C04E0FDF746
:102518001DFF401B642827D8236813F0007FF6D1DD
:102528000020F8BD0120F8BD0320F8BD0320F8BD48
:102538000320F8BD0120F8BD0320F8BD0320F8BD35
:102548000320F8BD0320F8BD0320F8BD0320F8BD23
:102558000320F8BD0320F8BD0020F8BD0120F8BD18
:102568000320F8BD0320F8BD0320F8BD0038024061
:1025780038540008600047422DE9F04104460D46F2
:102588000368013B0E2B04D98B484FF4187101F0F6
:10259800FFFA0F2D04D9884840F2612101F0F8FABA
:1025A800864B1B6803F00F03AB4280F08B80EAB2C6
:1025B800824B1A701B6803F00F03AB4240F0548142
:1025C800236813F0020F1DD0A368A3B1802B12D08B
:1025D800902B10D0A02B0ED0B02B0CD0C02B0AD033
:1025E800D02B08D0E02B06D0F02B04D0724840F254
:1025F800772101F0CDFA724B996821F0F001A268B9
:102608000A439A60236813F0010F00F0EA806368B8
:10261800022B04D9684840F27E2101F0B9FA6368B8
:10262800012B05D1664A126812F4003F0ED11EE153
:10263800022B05D1624A126812F0007F06D119E117
:102648005F4A126812F0020F00F017815C4A916825
:1026580021F003010B439360FDF778FE054663689C
:10266800012B0FD105E0FDF771FE401BB84203D9DD
:1026780006E1534E41F28837B36803F00C03042B8C
:10268800F1D1AEE0022B15D105E0FDF75FFE401B4E
:10269800B84203D9F7E04A4E41F28837B36803F0ED
:1026A8000C03082BF1D19CE0FDF750FE401BB8420B
:1026B80003D9EBE0424E41F28837B36813F00C0FB0
:1026C800F2D18EE0236813F0020F1DD0A368A3B1E6
:1026D800802B12D0902B10D0A02B0ED0B02B0CD06A
:1026E800C02B0AD0D02B08D0E02B06D0F02B04D07A
:1026F800314840F2C62101F04BFA314B996821F07C
:10270800F001A2680A439A60236813F0010F60D0B1
:102718006368022B04D9284840F2CD2101F038FA29
:102728006368012B05D1264A126812F4003F0ED1C6
:10273800AFE0022B05D1224A126812F0007F06D1C1
:10274800AAE01F4A126812F0020F00F0A8801C4A83
:10275800916821F003010B439360FDF7F7FD0646EE
:102768006368012B0FD105E0FDF7F0FD801B4045A4
:1027780003D997E0124F41F28838BB6803F00C0385
:10278800042BF1D125E0022B1CD105E0FDF7DEFD7D
:10279800801B404503D988E0094F41F28838BB685F
:1027A80003F00C03082BF1D113E0FDF7CFFD801BDC
:1027B80040450AD97CE000BF38540008003C02407C
:1027C800003802403D4F41F28838BB6813F00C0FC7
:1027D800EBD1EAB23A4B1A701B6803F00F03AB4215
:1027E80069D1236813F0040F19D0E36883B1B3F5F6
:1027F800805F0DD0B3F5A05F0AD0B3F5C05F07D0F6
:10280800B3F5E05F04D02F4840F21D3101F0C0F964
:102818002A4B996821F4E051E2680A439A602368D8
:1028280013F0080F1AD0236983B1B3F5805F0DD078
:10283800B3F5A05F0AD0B3F5C05F07D0B3F5E05F8A
:1028480004D020484FF4497101F0A2F91B4B9A6853
:1028580022F46042216942EAC1029A600F20FDF722
:102868003FFD0020BDE8F0810120BDE8F081012096
:10287800BDE8F0810120BDE8F0810120BDE8F081CC
:102888000320BDE8F0810320BDE8F0810320BDE806
:10289800F0810120BDE8F0810120BDE8F081012030
:1028A800BDE8F0810320BDE8F0810320BDE8F08198
:1028B8000320BDE8F0810120BDE8F0810038024026
:1028C800003C024038540008204B9B6803F00C037E
:1028D800042B38D0082B01D01D4870471B4B586873
:1028E80000F03F005A6802F480024FF4800393FA24
:1028F800A3F3B3FA83F3DBB232FA03F314BF154B35
:10290800134BB3FBF0F0114B5A6847F6C0731A40EB
:1029180093FAA3F3B3FA83F3DBB222FA03F303FBCC
:1029280000F00A4B5A6802F440324FF4403393FAED
:10293800A3F3B3FA83F3DBB222FA03F301335B00A8
:10294800B0FBF3F070470348704700BF00380240FF
:102958000024F40000127A0008B5FFF7B5FF094B10
:102968009A6802F0F002F02393FAA3F3B3FA83F320
:10297800DBB222FA03F3044AD35CD840034B186055
:1029880008BD00BF00380240285400080C00002091
:10299800F8B504460368013B2E2B03D9B1486D21D5
:1029A80001F0F6F8236813F0030F00F083806368E2
:1029B800C03BF02B03D9AB48782101F0E9F800229D
:1029C800A94B1A60FDF7C2FC0646A84D05E0FDF7C5
:1029D800BDFC801B642800F281812B6813F0006F16
:1029E800F5D1236813F0010F1ED0A368023B052B15
:1029F80003D99C488E2101F0CBF8636847F6C07272
:102A080092FAA2F2B2FA82F2D2B203FA02F2A368FE
:102A18004FF0E04191FAA1F1B1FA81F1C9B28B40CE
:102A28001343924AC2F88430236813F0020F2FD060
:102A3800E368023B0D2B03D98A489B2101F0A8F8D3
:102A4800E369013B1F2B03D986489C2101F0A0F8BC
:102A5800864BD3F8841001F0E0414FF0E04393FA3D
:102A6800A3F3B3FA83F3DBB2D9406368E2681206D2
:102A780042EA831343EA01727C4BC3F88420D3F8FB
:102A88008C1021F01F01E269013A0A43C3F88C2037
:102A98000122754B1A60FDF759FC0646734D05E097
:102AA800FDF754FC801B642800F21A812B6813F090
:102AB800006FF5D0236813F00C0F00F09A8023699B
:102AC800C03BF02B03D96748C12101F061F800220F
:102AD800674B1A60FDF73AFC0646644D05E0FDF7C2
:102AE80035FC801B642800F2FD802B6813F0005F22
:102AF800F5D1236813F0040F30D06369023B0D2B26
:102B080003D95848D62101F043F8236A013B1F2B0B
:102B180003D95448D72101F03BF8544BD3F8881017
:102B280001F0E0414FF0E04393FAA3F3B3FA83F3E3
:102B3800DBB2D94023696269120642EA831343EA89
:102B480001724A4BC3F88820D3F88C1021F4F8514D
:102B5800226A013A41EA0222C3F88C20236813F062
:102B6800080F35D0A369023B052B03D93D48E62160
:102B780001F00EF8636A63B1B3F5803F09D0B3F58D
:102B8800003F06D0B3F5403F03D03648E72100F0B8
:102B9800FFFF364BD3F8882002F070624FF0706365
:102BA80093FAA3F3B3FA83F3DBB2DA40236912068C
:102BB80042EA8312A36942EA03722C4BC3F88820C5
:102BC800D3F88C1021F44031626A0A43C3F88C2090
:102BD8000122274B1A60FDF7B9FB0646234D04E096
:102BE800FDF7B4FB801B64287ED82B6813F0005FC8
:102BF800F6D0236813F0200F66D01C4B1A6C42F0F5
:102C080080521A64A3F5E4331A6842F480721A6099
:102C1800FDF79CFB0646174D04E0FDF797FB801B6C
:102C2800642863D82B6813F4807FF6D00F4B1A6F93
:102C3800A36A534013F4407F09D00C4B196F21F459
:102C480040710D4A01201060002010601967A36AC6
:102C5800B3F5807F1BD1FDF779FB0746034D41F2A1
:102C6800883610E06854000868004742003802407F
:102C78007000474200700040400E4742FDF766FB77
:102C8800C01BB04234D82B6F13F0020FF6D0A36AE2
:102C980003F44072B2F5407F0AD1174A916821F4D3
:102CA800F81123F0704323F440730B43936004E05E
:102CB800114B9A6822F4F8129A600F4B196FA26AA6
:102CC800C2F30B020A431A67236813F0100F11D0DE
:102CD80094F82C20094B1A600020F8BD0320F8BD99
:102CE8000320F8BD0320F8BD0320F8BD0320F8BD7C
:102CF8000320F8BD0020F8BD00380240E01147422B
:102D0800704700BF38B50D460446C0B190F82C3066
:102D180013F0FF0F01D1FFF7F3FF022384F82C30E3
:102D2800214651F8040B00F045FD206829466268E9
:102D380000F0E8FD012384F82C30002038BD012084
:102D480038BD00BF38B504460D4690F82C30DBB2CC
:102D5800022B0ED0022380F82C30006800F064FEAD
:102D68002B68022B0CBF0523012384F82C3000208C
:102D780038BD022038BD00BF10B5044690F82C308D
:102D8800DBB2022B0AD0022380F82C30006800F056
:102D9800ABFE012384F82C30002010BD022010BDAA
:102DA8002DE9F04106460C4690461D46FDF7CEFA41
:102DB8000746B8F1000F2AD05BE0B5F1FF3F26D0F7
:102DC80025B1FDF7C3FAC01BA84220D933685A6859
:102DD80022F0E0025A6033681A6822F040021A6052
:102DE800B36AB3F5005F09D133681A6822F4005258
:102DF8001A6033681A6842F400521A60012386F890
:102E08005130002386F850300320BDE8F081336844
:102E18009B682340A342D0D10020BDE8F081B5F1E2
:102E2800FF3F26D025B1FDF791FAC01BA84220D953
:102E380033685A6822F0E0025A6033681A6822F050
:102E480040021A60B36AB3F5005F09D133681A68A3
:102E580022F400521A6033681A6842F400521A6069
:102E6800012386F85130002386F850300320BDE84E
:102E7800F08133689B682340A342D0D00020BDE88E
:102E8800F08100BF704700BF10B50446002800F06D
:102E9800AB80436833B1B3F5827F03D05348B22186
:102EA80000F076FEA3684BB1B3F5806F06D0B3F59A
:102EB800004F03D04D48B32100F06AFEE368B3F534
:102EC800006F04D01BB14948B42100F061FE2369AA
:102ED8002BB1022B03D04548B52100F059FE636998
:102EE800012B03D94148B62100F052FEA369B3F57E
:102EF800007F07D033B1B3F5802F03D03B48B7210B
:102F080000F046FEE3698BB1082B0FD0102B0DD0D3
:102F1800182B0BD0202B09D0282B07D0302B05D00D
:102F2800382B03D03148B82100F032FE236A2BB188
:102F3800802B03D02D48B92100F02AFE636A2BB1FB
:102F4800102B03D02948BA2100F022FEA36A33B11E
:102F5800B3F5005F03D02548BB2100F019FEE36AF2
:102F6800013B4FF6FE72934203D92048BC2100F082
:102F78000FFE94F8513013F0FF0F02D12046FFF7EF
:102F880081FF022384F8513023681A6822F0400236
:102F98001A6023686168A2681143E26811432269D4
:102FA800114362690A43A16901F400711143E2699E
:102FB8001143226A1143A26A0A431A602368618B8B
:102FC80001F00401626A0A435A602368E26A1A61DE
:102FD8002368DA6922F40062DA61002084F852007A
:102FE800012384F8513010BD012010BD9C54000805
:102FF800704700BF10B5044670B103681A6822F024
:1030080040021A60FFF7F4FF002084F8520084F8A9
:10301800510084F8500010BD012010BDF8B50446D9
:103028000F4616461D4690F85100C0B2012840F0E0
:10303800D480002900F0D380002A00F0D280A36851
:103048003BB1B3F5004F04D06A4840F26D1100F06F
:103058009FFD94F85030012B00F0C580012384F8BF
:103068005030122384F85130002384F852302763FB
:10307800A686E686E364A364A387E387A36AB3F519
:10308800005F09D123681A6822F400521A60236885
:103098001A6842F400521A60A368B3F5004F04D1CD
:1030A80023681A6842F480421A6023681A6812F08A
:1030B800400F03D11A6842F040021A60E368002BFF
:1030C8002FD1636813B1E38E012B1BD12268236BC8
:1030D800591C21631B78D360E38E013BE38611E022
:1030E8002046394632462B46FFF75AFE00287CD147
:1030F8002068236B5A1C22631B78C360E38E013B54
:10310800E38601E002270026E38E002BE8D1A36ABC
:10311800B3F5005F36D123681A6842F480521A600A
:1031280030E0636813B1E38E012B1DD12368226B55
:103138001288DA60236B02332363E38E013BE38654
:1031480012E02046394632462B46FFF729FE002872
:103158004DD12368206B0288DA60236B0233236326
:10316800E38E013BE38601E002270026E38E002B75
:10317800E7D1A36AB3F5005F04D123681A6842F463
:1031880080521A602046022100222B46FFF708FED3
:1031980038B194F8523043F0200384F852300323B6
:1031A80026E02046802101222B46FFF7F9FD034641
:1031B80038B194F8523043F0200384F85230032396
:1031C80016E0A26812B92268D1689268012284F8D0
:1031D8005120002284F850200AE0022308E001234D
:1031E80006E0012304E0022302E0032300E00323B6
:1031F8001846F8BD9C5400082DE9F04182B00446F9
:103208000F4690461E46089D90F85100C0B201280E
:1032180002D0222840F09581002F00F09481B8F167
:10322800000F00F09281002E00F09181A36823B175
:103238008E4840F2C72100F0ABFC94F85030012BC7
:1032480000F08781012384F8503094F85130DBB2C4
:10325800012B04BF322384F85130002384F8523004
:10326800C4F83880A687E6872763A686E686A3641F
:10327800E364A36AB3F5005F09D123681A6822F4EE
:1032880000521A6023681A6842F400521A602368D0
:103298001A6812F0400F03D11A6842F040021A600F
:1032A800E368B3F5006F40F0838063682BB1B3F532
:1032B800827F0CD1E38E012B09D12368226B1288FF
:1032C800DA60236B02332363E38E013BE386E38EEC
:1032D800002B4ED1A36AB3F5005F04D123681A68A6
:1032E80042F480521A602046012100222B46FFF743
:1032F80057FD002840F02F81A36B2268D2681A80FE
:10330800A36B0233A363E38F013BE387CAE0204644
:10331800394632462B46FFF743FD002840F01D8111
:103328002368226B1288DA60236B02332363E38EEF
:10333800013B9BB2E38643B9A36AB3F5005F04D1AE
:1033480023681A6842F480521A6020464146324681
:103358002B46FFF725FD002840F00181A36B22686A
:10336800D2681A80A36B0233A363E38F013BE38720
:1033780003E0022700264FF00108E38E002BC6D198
:103388006368002B40F08E802046012100222B46E6
:10339800FFF706FD002840F0E480A36B2268D2689E
:1033A8001A80A36B0233A363E38F013BE38779E0C1
:1033B80063682BB1B3F5827F0BD1E38E012B08D163
:1033C8002268236B591C21631B78D360E38E013B71
:1033D800E386E38E002B4BD1A36AB3F5005F04D1DB
:1033E80023681A6842F480521A602046012100229C
:1033F8002B46FFF7D5FC002840F0B580A36B226868
:10340800D2681A70E38F013BE3874BE020463946C8
:1034180032462B46FFF7C4FC002840F0A6802268FD
:10342800236B591C21631B78D360E38E013B9BB24D
:10343800E38643B9A36AB3F5005F04D123681A6829
:1034480042F480521A602046414632462B46FFF726
:10345800A7FC002840F08B80A36B5A1CA26322684B
:10346800D2681A70E38F013BE38705E09C5400089B
:10347800022700264FF00108E38E002BC6D16368AF
:1034880083B92046012100222B46FFF789FC00283A
:103498006FD1A36B5A1CA2632268D2681A70E38F9B
:1034A800013BE387A36AB3F5005F13D120460121EE
:1034B80000222B46FFF774FC38B194F8523043F0E1
:1034C800020384F85230032354E02368DB689BB27C
:1034D800ADF806302046802101222B46FFF760FC1C
:1034E800034638B194F8523043F0200384F8523040
:1034F80003233FE0012284F851202268916801F0FB
:103508001000A16AB1F5005F17D1B0B194F852303C
:1035180043F0020384F85230B1F5005F08D1136814
:1035280023F40053136023681A6842F400521A60A7
:10353800002384F8503001231CE0002284F8502036
:1035480018E0022316E0012314E0012312E001230E
:1035580010E002230EE003230CE003230AE0032318
:1035680008E0032306E0032304E0032302E0032327
:1035780000E00323184602B0BDE8F081F0B585B03D
:1035880004460F4615461E4690F85100C0B2012861
:1035980040F0FB80002900F0FA80002A00F0F98052
:1035A80094F85030012B00F0F680012384F8503055
:1035B800222384F85130002384F85230A163A28773
:1035C800E287A364E364A386E386A368B3F5004FA8
:1035D80004D123681A6822F480421A60A36AB3F5FA
:1035E800005F09D123681A6822F400521A60236820
:1035F8001A6842F400521A606368B3F5827F0CD1EE
:10360800A36853B984F850300096204639463A46A4
:103618002B46FFF7F1FD0546C4E023681A6812F04F
:10362800400F03D11A6842F040021A60E3689BB168
:1036380035E0204639462A463346FFF7B1FB0028D5
:1036480040F0AB80A36B5A1CA2632068C2681A7052
:10365800E38F013BE38701E001270025E38F012B7E
:10366800E7D8A36AB3F5005F27D123681A6842F444
:1036780080521A6021E0204639462A463346FFF731
:103688008FFB002840F08B80A36B2068C2681A80EB
:10369800A36B0233A363E38F013BE38701E00127B8
:1036A8000025E38F012BE6D8A36AB3F5005F04D1A8
:1036B80023681A6842F480521A60204601210022C9
:1036C8003346FFF76DFB054600286AD1E36833B936
:1036D800A36B5A1CA2632268D2681A7006E0A36B17
:1036E8002268D2681A80A36B0233A363E38F013B7D
:1036F800E387A36AB3F5005F13D1204601210022B6
:103708003346FFF74DFB38B194F8523043F00203CB
:1037180084F85230032545E02368DB689BB2ADF896
:103728000E306368B3F5827F0BD1A368B3F5004F01
:1037380002D0B3F5806F04D123681A6822F04002E2
:103748001A60012384F8513023689A6802F0100146
:10375800A26AB2F5005F14D199B194F8522042F0F0
:10376800020284F852201A6822F400521A60236870
:103778001A6842F400521A60002384F85030012578
:1037880010E0002384F850300CE002250AE00125FF
:1037980008E0012506E0022504E0032502E00325F0
:1037A80000E00325284605B0F0BD00BF90F85100A1
:1037B800704700BF38B505460C46504B984204D0B8
:1037C8004F4840F2BD3100F0E3F92368012B04D9DA
:1037D8004B4840F2BE3100F0DBF96368032B04D993
:1037E800474840F2BF3100F0D3F9A36843B1042B36
:1037F80006D0082B04D042484FF4707100F0C8F985
:10380800E36843B1102B06D0202B04D03C4840F28B
:10381800C13100F0BDF9236933B1402B04D03848D9
:1038280040F2C23100F0B4F96369802B0AD0B3F5D5
:10383800807F07D0B3F5C07F04D0314840F2C33150
:1038480000F0A6F9A3693BB1B3F5007F04D02C487A
:103858004FF4717100F09CF9E36953B1B3F5006F4F
:1038680007D0B3F5406F04D0254840F2C53100F0C9
:103878008FF9236A3BB1B3F5805F04D0204840F24A
:10388800C63100F085F9636A53B1B3F5005F07D01C
:10389800B3F5804F04D01A4840F2C73100F078F9E8
:1038A8002368012B12D06268A3681A43E3681A439D
:1038B80023691A4363691A43A3691A43E3691A43DC
:1038C800236A1343626A13432B6014E0E269236A94
:1038D8001A43636A42EA03006268A36842EA030182
:1038E800E36819432369194363690B43A46943EAED
:1038F800040128606960002038BD00BF400100A0B5
:10390800CC54000870B505460C461646444B984200
:1039180004D0444840F2FB3100F03AF92368013BF7
:103928000F2B04D93F484FF47F7100F031F96368D9
:10393800013B0F2B04D93B4840F2FD3100F028F938
:10394800A368013B0F2B04D9364840F2FE3100F042
:103958001FF9E368013B0F2B04D9324840F2FF31CD
:1039680000F016F92369013B0F2B04D92D484FF4B9
:10397800806100F00DF96369013B0F2B04D92948D8
:1039880040F2014100F004F9A369013B0F2B04D96F
:10399800244840F2024100F0FBF8012E04D92148E6
:1039A80040F2034100F0F4F8012E1BD023685A1EA0
:1039B8006368013B42EA0313A268013A43EA022220
:1039C800E368013B42EA03332269013A43EA0242CF
:1039D8006369013B42EA0353A269013A43EA02637D
:1039E800AB601AE02268531E6268013A43EA021289
:1039F800A368013B42EA03232269013A43EA0242EF
:103A0800A369013B42EA0362E368013B616901394A
:103A1800090541EA0331EA60A960002070BD00BFD2
:103A2800400100A0CC54000870B582B005460C4691
:103A38001646002301932A4B984204D029484FF494
:103A4800906100F0A5F82368062B04D9254840F2B8
:103A5800814100F09DF86368102B08D0082B06D030
:103A6800182B04D01F4840F2824100F091F8A36857
:103A7800013B0F2B04D91B4840F2834100F088F822
:103A8800E368B3F5005F04D3164840F2844100F0C0
:103A98007FF8226863681A43A368013B42EA43132C
:103AA800E26843EA42230193019B2B61FCF74EFC39
:103AB8000446AB6913F0200F0BD0B6F1FF3F0AD0D4
:103AC8005EB1FCF743FC001BB0428CBF0320012011
:103AD80004E0002002E0012000E0032002B070BDF5
:103AE800400100A0CC54000838B504460D460B4BE5
:103AF800984204D00A4840F2AD4100F049F8B5F5C3
:103B0800005F04D3064840F2AE4100F041F8636913
:103B180043EA45056561002038BD00BF400100A0AB
:103B2800CC540008FEE700BF08B5034800F056F87B
:103B38000120FFF7F7FF00BFFC54000808B50D4B44
:103B48001B6813B90C4A0B4B1A600A4B1B680330ED
:103B580020F003001844094A904206D900F0C2FF39
:103B68000C2303604FF0FF3008BD024A106018466E
:103B780008BD00BFC40000209C03002000FC0220F8
:103B880001230360014B0B60704700BF0400002055
:103B980008B503460A460348194600F005F8FFF73A
:103BA800C3FF00BF505500080FB400B583B004AB85
:103BB80053F8042B01930848802100F0CBFF011E25
:103BC80003DD054800F038F80146084603B05DF803
:103BD80004EB04B0704700BFCC00002010B50446C9
:103BE80000F086FF0146204600F026F80248012131
:103BF80000F022F810BD00BF7C55000810B4002466
:103C08004FF0604212E0D2F8803E13F0010F04D06A
:103C1800D2F8003E13F0010F01D1204609E01368E5
:103C2800002BFCD003781370013401308C42EAD3A6
:103C380008465DF8044B704708B5FFF7DFFF08BD7D
:103C480008B500F001F808BD0C4B1A6842F00102F3
:103C58001A60002199601A6822F0847222F4803276
:103C68001A60074A5A601A6822F480221A60D960DA
:103C78004FF00062034B9A60704700BF0038024063
:103C88001030002400ED00E0F02070474FF4A070E1
:103C9800704700BF08B500F0D5FA08BD08B529205F
:103CA800FFF7F8FF08BD00BF08B52820FFF7F2FFAF
:103CB80008BD00BF08B500F0A9FA08BD10B5A74BAC
:103CC8001B78002B40F049810124A44B1C7000F0A4
:103CD80053FACA20FFF7DEFFC320FFF7EBFF0820E7
:103CE800FFF7E8FF5020FFF7E5FFCF20FFF7D2FFEF
:103CF8000020FFF7DFFFC120FFF7DCFF3020FFF7D0
:103D0800D9FFED20FFF7C6FF6420FFF7D3FF03209C
:103D1800FFF7D0FF1220FFF7CDFF8120FFF7CAFF82
:103D2800E820FFF7B7FF8520FFF7C4FF0020FFF763
:103D3800C1FF7820FFF7BEFFCB20FFF7ABFF39208C
:103D4800FFF7B8FF2C20FFF7B5FF0020FFF7B2FF01
:103D58003420FFF7AFFF0220FFF7ACFFF720FFF793
:103D680099FF2020FFF7A6FFEA20FFF793FF002026
:103D7800FFF7A0FF0020FFF79DFFB120FFF78AFFA4
:103D88000020FFF797FF1B20FFF794FFB620FFF7EF
:103D980081FF0A20FFF78EFFA220FFF78BFFC020CC
:103DA800FFF778FF1020FFF785FFC120FFF772FFAC
:103DB8001020FFF77FFFC520FFF76CFF4520FFF7B6
:103DC80079FF1520FFF776FFC720FFF763FF9020E4
:103DD800FFF770FF3620FFF75DFFC820FFF76AFF87
:103DE800F220FFF757FF0020FFF764FFB020FFF72E
:103DF80051FFC220FFF75EFFB620FFF74BFF0A20F6
:103E0800FFF758FFA720FFF755FF2720FFF752FFBE
:103E18000420FFF74FFF2A20FFF73CFF0020FFF7A1
:103E280049FF0020FFF746FF0020FFF743FFEF2080
:103E3800FFF740FF2B20FFF72DFF0020FFF73AFF89
:103E48000020FFF737FF2046FFF734FF3F20FFF73A
:103E580031FFF620FFF71EFF2046FFF72BFF00205B
:103E6800FFF728FF0620FFF725FF2C20FFF712FF9A
:103E7800C82000F02BFA2620FFF70CFF2046FFF79A
:103E880019FFE020FFF706FF0F20FFF713FF292097
:103E9800FFF710FF2420FFF70DFF0C20FFF70AFFA4
:103EA8000E20FFF707FF0920FFF704FF4E20FFF75A
:103EB80001FF7820FFF7FEFE3C20FFF7FBFE0920FC
:103EC800FFF7F8FE1320FFF7F5FE0520FFF7F2FED7
:103ED8001720FFF7EFFE1120FFF7ECFE0020FFF799
:103EE800E9FEE120FFF7D6FE0020FFF7E3FE1620EB
:103EF800FFF7E0FE1B20FFF7DDFE0420FFF7DAFEE8
:103F08001120FFF7D7FE0720FFF7D4FE3120FFF777
:103F1800D1FE3320FFF7CEFE4220FFF7CBFE05206F
:103F2800FFF7C8FE0C20FFF7C5FE0A20FFF7C2FE08
:103F38002820FFF7BFFE2F20FFF7BCFE0F20FFF75A
:103F4800B9FE1120FFF7A6FEC82000F0BFF929200E
:103F5800FFF7A0FE2C20FFF79DFE10BD4C010020AE
:103F680008B500F08BF908BD08B5054B1B780BB9EF
:103F7800FFF7A4FED3200321FFF7F2FF80B208BDAC
:103F88004C01002030B59FB01D4B1A6C42F0805296
:103F98001A64A3F5E4331A6842F440421A60012314
:103FA8000D930E93022413944FF480031493082561
:103FB80015954FF4B47316931794072318930DA807
:103FC800FEF780F8FEF746F80F2319931A9400239A
:103FD8001B934FF4A0531C934FF480531D9319A8BF
:103FE8000521FEF7C9FA0195C02305930423079319
:103FF8004FF400330A9301A8FEF7CAFC1FB030BD86
:104008000038024008B5FCF77FF9FFF7BBFF00F066
:104018009DFA00204FF0504100F00EFA00200121D7
:1040280000F054FA002000F04BFA124C204600F041
:10403800E7FA204600F06EFA4FF0FF3000F05EFA23
:1040480000F0FCFA01200C49024600F00DFC4FF488
:10405800FA70FCF781F905200849012200F004FCF8
:104068004FF4FA70FCF778F908200549012200F0AE
:10407800FBFBFEE70000FFFF647000087470000897
:104088008070000800B587B00C4B5A6C42F480125F
:104098005A641A6B42F020021A634FF4607301935A
:1040A80002230293039301230493052305930448F1
:1040B80001A9FDF7D7FB07B05DF804FB0038024003
:1040C8000014024010B51048FFF770FBD0B90E4C31
:1040D8000E4B23601823E3610023A360636123610F
:1040E800A3620722E262E36023624FF40072A261D6
:1040F80063624FF4827363602046FFF7C3FF204674
:10410800FEF7C2FE10BD00BF500100200050014064
:1041180008B50348FEF76EFFFFF7D4FF08BD00BFE0
:104128005001002000B583B002A921F8020D06480D
:104138000122064B1B68FEF771FF08B1FFF7E8FF85
:1041480003B05DF804FB00BF5001002050000020C0
:1041580000B583B00246064801A9064B1B68FFF765
:104168000DFA08B1FFF7D4FF019803B05DF804FB1E
:1041780050010020500000202DE9F04186B0204C6D
:10418800236B43F0080323634FF400530193012585
:1041980002950026039602270497DFF86C804046B4
:1041A80001A9FDF75FFB236B43F0080323634FF47A
:1041B80080530193029503960497404601A9FDF7A1
:1041C80051FB236B43F004032363042401940295F9
:1041D800039604970B4F38460DEB0401FDF742FB9D
:1041E800384621463246FDF7B3FC384621462A4672
:1041F800FDF7AEFCFFF766FF06B0BDE8F08100BF33
:104208000038024000080240000C024038B505465C
:104218000A484FF400510122FDF79AFC084C204649
:1042280004210022FDF794FC2846FFF77BFF204677
:1042380004210122FDF78CFC38BD00BF000C0240B0
:104248000008024038B505460A484FF400510022DC
:10425800FDF77EFC084C204604210022FDF778FC7F
:104268002846FFF75FFF204604210122FDF770FC76
:1042780038BD00BF000C024000080240F8B50746F0
:104288000E46104C204604210022FDF761FC0E4D1D
:1042980028464FF400510022FDF75AFC3846FFF734
:1042A80041FF3046FFF754FF064628464FF40051B9
:1042B8000122FDF74DFC204604210122FDF748FCB0
:1042C8003046F8BD00080240000C024008B5FCF773
:1042D80043F808BD30B587B0314B5A6C42F0806264
:1042E8005A641A6B42F400021A631A6B42F0010214
:1042F8001A631A6B42F002021A631A6B42F0040244
:104308001A631A6B42F008021A631A6B42F0200211
:104318001A631A6B42F040021A6341F6580301937C
:10432800022302930022039204930E2305931D484F
:1043380001A9FDF797FA4FF4706301931A4D2846C7
:1043480001A9FDF78FFA4FF498630193174801A963
:10435800FDF788FA48230193154801A9FDF782FA69
:104368004FF480630193134801A9FDF77BFA4FF4DA
:104378000C630193104C204601A9FDF773FA03233F
:10438800019309230593284601A9FDF76BFA4FF419
:10439800A0530193204601A9FDF764FA07B030BD88
:1043A80000380240000002400004024000080240B9
:1043B800000C024000140240001802402DE9F041B0
:1043C80082B005460F461646984611484FF44033CA
:1043D800436000248460089CC4600E4C0460FDF7B0
:1043E800A9F888B90A482946FDF7A8F960B9CDF8AF
:1043F8000080074809993A463346FDF7F3F818B99B
:1044080003480A21FDF72AF902B0BDE8F08100BF90
:10441800C001002000B0024008B5024B1B689B6A2F
:10442800984708BD9403002008B5024B1B68DB6A57
:10443800984708BD9403002070B58EB005460E4617
:1044480000240194FFF7E8FF02900394FFF7ECFFC4
:10445800049005940A96FF23069307948DF8344038
:104468008DF835408DF836404FF4C0630893072324
:104478000993FFF7D1FF0B90FFF7D6FF0C900D4C77
:10448800204601A92A46FDF735FD0B4B6A00511954
:1044980003EB81014FF0FF304860084888601544FD
:1044A8004FF07F4243F825202046FDF7B7FD0EB0B8
:1044B80070BD00BF30020020A80100204800002085
:1044C800014B1860704700BFA401002001290A4B66
:1044D8001B6803EBC010D0F884300CBF43F0010315
:1044E80023F00103C0F88430034B1B685A6A42F07A
:1044F80001025A62704700BF30020020034B1B685C
:1045080003EB4303024A42F823007047A40100204A
:10451800A8010020044B1B6803EB4303034A02EB8A
:1045280083035860704700BFA4010020A801002041
:10453800044B1B6803EB4303034A02EB83039860B5
:10454800704700BFA4010020A801002038B51F4C07
:104558001F4B2360092363610123A3611D23E361CA
:104568000323236240F20D13636240F24313A362F4
:1045780040F21713E36240F247132363002584F8DF
:10458800365084F8345084F83550124808230360B4
:10459800C0230361042383614FF400334362FEF7B1
:1045A800F7F96560A560E5602561FFF793FE204691
:1045B800FDF7B2FB084B094A13601B68984700F0E7
:1045C80049FA0748FFF7B4FF284638BD30020020F3
:1045D8000068014000020020100000209403002021
:1045E80048000020044B1B6803EB4303034A02EB1B
:1045F80083039868704700BFA4010020A801002029
:10460800F0B583B007460B4B1C6834220A4B02FBFB
:104618000433DE6DFFF700FF0546FFF705FF03468D
:10462800002200920197204631462A46FFF7C6FE2F
:1046380003B0F0BDA40100203002002008B5034BF0
:104648001B689B6803B1984708BD00BF940300200E
:10465800F8B506460F461546064B1B683421064A30
:1046680001FB0323DC6DFFF7D7FE00FB076044F86E
:104678002050F8BDA4010020300200202DE9F04FA1
:1046880085B083460E460292374B1B6803EB430303
:10469800364A02EB83039B68D98803919D88EB1DFA
:1046A800DB100193C5EBC30A5FFA8AFA0022009275
:1046B800DFF8B49050E00099019A01FB02F3029AE6
:1046C8001A440199012902D0022904D00AE0029A69
:1046D80012F8038010E0029911F80380537843EA36
:1046E800082809E0029911F8038053781B0243EA6D
:1046F8000848937848EA03080024012725E02B1B83
:104708005344013B07FA03F313EA080F0ED00BEBEF
:104718000400D9F8003003EB430380B23146DFF8D8
:104728004CE05EF82320FFF793FF0DE00BEB04004D
:10473800D9F8003003EB43030C4901EB830380B243
:1047480031465A68FFF784FF0134A542D7D80136AD
:10475800B6B2009A01320092039B00998B42AAD804
:1047680005B0BDE8F08F00BFA4010020A80100201B
:1047780038B50A4B1B6803EB4303094C04EB83036E
:104788009B681C68203ADD8805FB02F29B8807338A
:10479800DB1003FB0242FFF771FF38BDA4010020C4
:1047A800A80100202DE9F047064689461546984697
:1047B8001446002701E001370C46611C2278002AC4
:1047C800F9D1FFF729FE264B1B6803EB4303254A63
:1047D80002EB83039B689B88B0FBF3F0B8F1010FF1
:1047E80003D0B8F1020F07D00AE0C01B00FB03F3A7
:1047F80006EB5306B6B203E0C01B00FB0366B6B275
:104808000024DFF86080164F10E03046494615F85E
:10481800012BFFF7ADFF3B6803EB430308EB830372
:104828009B689B881E44B6B20134A4B295F800A0D8
:10483800FFF7F2FD3B6803EB430308EB83039B6838
:104848009B8803FB140080B21AF1000218BF0122F2
:10485800984238BF0022002AD7D1BDE8F08700BFB0
:10486800A4010020A801002070B506460D46144694
:10487800FFF7B8FEC38806FB03F1002089B22A4679
:104888002346FFF78FFF70BD30B587B03F4B9A6B5B
:1048980042F001029A631A6B42F480021A631A6B9F
:1048A80042F002021A631A6B42F004021A631A6B8E
:1048B80042F008021A631A6B42F010021A631A6B6C
:1048C80042F020021A631A6B42F040021A63022374
:1048D80002930493002503950C23059306AC6023EB
:1048E80044F8143D2A482146FCF7BCFF01230193F4
:1048F80028482146FCF7B6FF4CF20373019326487B
:104908002146FCF7AFFF4FF68373019323482146F6
:10491800FCF7A8FF4FF63F03019321482146FCF717
:10492800A1FF48F2331301931E482146FCF79AFF72
:104938001D4C65608023A3604FF40073E3604FF45F
:10494800806323614FF4805363614FF48043A36114
:10495800E5614FF40033236265620323A362E562D5
:104968002563124B2360124B1C63A3632046FBF79D
:104978008FFE2046FBF780FD382029462A46FBF7A4
:1049880017FD3820FBF756FD07B030BD0038024050
:104998000004024000080240000C024000100240DF
:1049A8000014024000180240D8020020106402409F
:1049B800540300202DE9F04782B082464FF00008EA
:1049C800CDF80480214C0126266008276760A66080
:1049D800C4F80C801E4D284621464FF6FF72FEF79C
:1049E800B1F93046FBF7B8FC022323606760A66084
:1049F800C4F80C80284621464FF6FF72FEF7A2F94C
:104A08000323236067604FF00409C4F80890C4F8D2
:104A18000C80284621464FF6FF72FEF793F940F2C4
:104A280031230193C4F800906760A660019BE3609E
:104A3800284621464FF6FF72FEF784F9284651466C
:104A4800FEF79AF902B0BDE8F08700BF28030020FE
:104A58005403002038B5164C164B2360164D02231C
:104A68002B60072169600422AA60E9602B616B61F1
:104A7800AB61012363600023A360E260102222611E
:104A8800402262614FF4C072A261E3614FF4006298
:104A9800226263624FF40053A362FFF7F5FE2046DB
:104AA8002946FEF72FF940F26A50FFF783FF38BD19
:104AB80054030020400100A038030020704700BFC5
:104AC800FEE700BFFEE700BFFEE700BFFEE700BF4E
:104AD800704700BF704700BF704700BF08B5FBF7BD
:104AE8002DFC08BD014B1868704700BFB4000020BA
:104AF800034613F8012B002AFBD1181A0138704716
:104B080030B5141E9BB0054604DA8B2303604FF0C2
:104B1800FF301CE04FF4027200910491ADF80C20B4
:104B280014BF04F1FF3121464FF6FF72029105913F
:104B3800ADF80E2069461A461E9B00F077F8431C14
:104B4800BCBF8B232B6014B1009B00221A701BB0D2
:104B580030BD000073B50093054B06460D4614465C
:104B6800186831462A462346FFF7CAFF02B070BDCF
:104B7800B40000202DE9F0478D68AB4281460C4611
:104B880092461F4643D38B8913F4906F3DD0266815
:104B98000969C1EB06086669022206EB460696FB20
:104BA800F2F608F101023A44964238BF16465B0510
:104BB8000FD5314600F026FB054698B121694246DB
:104BC80000F0B7FAA38923F4906343F08003A3812C
:104BD80013E0324600F06AFB054670B94846216981
:104BE80000F0CCFA0C23C9F80030A38943F0400345
:104BF800A3814FF0FF30BDE8F08725616661454429
:104C0800C8EB06062560A6603D46AF4200D23D4689
:104C18002A462068514600F095FAA3685B1BA360FA
:104C280023681D4425600020BDE8F0872DE9F04386
:104C38009DB0074603938B891C060D4616460CD576
:104C48000B6953B9402100F0DDFA2860286110B9DA
:104C58000C233B60C8E040236B61002309932023A9
:104C68008DF8293030238DF82A3033461C4613F846
:104C7800012B1AB9B4EB06090FD002E0252AF5D1A9
:104C8800F8E73846294632464B46FFF773FF0130AE
:104C980000F0A580099B4B4409932378002B00F072
:104CA8009E8000234FF0FF320493079305920693EA
:104CB8008DF853301A9304F101094C464D4E217872
:104CC8003046052200F026FA09F10109049B28B1B3
:104CD800861B0120B04003430493EEE7D90644BF86
:104CE80020228DF853201A0744BF2B228DF8532019
:104CF80022782A2A02D0079B21460EE0039A111D2A
:104D080012680391002A01DB079204E0524243F043
:104D180002030792049301340AE00C460131227819
:104D2800303A092A03D80A2000FB0323F5E7079342
:104D380023782E2B1AD163782A2B0AD1039B1A1DAC
:104D48001B680392002B04F10204B8BF4FF0FF3335
:104D58000BE0611C00230C4601312278303A092A05
:104D680003D80A2000FB0323F5E70593224E217898
:104D78003046032200F0CEF930B1861B049B402058
:104D8800B04003430493013421781C488DF828105F
:104D98000622661C00F0BEF988B1194B33B9039B93
:104DA800073323F007030833039314E003AB00939E
:104DB800384604A92A46134BAFF3008007E003AB3B
:104DC8000093384604A92A460E4B00F08FF8B0F13C
:104DD800FF3F804603D0099B4344099345E7AB89CD
:104DE8005B0601D4099801E04FF0FF301DB0BDE823
:104DF800F08300BF92700008987000089C7000084B
:104E0800000000007D4B00082DE9F84315461F46B9
:104E18008A680B69DDF820809A42A8BF13462B6088
:104E280091F8432006460C460AB101332B602368EB
:104E3800990602D52B6802332B60236813F0060904
:104E48001DD094F843302268003318BF012392061E
:104E58001FD5E1185A1C302081F84300224494F8E9
:104E6800451082F84310023313E03046394604F106
:104E780019020123C047013007D009F10109E2688E
:104E88002B68D31A9945F0DBDBE74FF0FF30BDE81C
:104E9800F8833046394604F14302C0470130F4D064
:104EA80023682A68E16803F00603042B08BFC2EBF5
:104EB80001052369A2680CBF25EAE57500259A4219
:104EC800C4BFC3EB0203ED184FF00009A9450ADA85
:104ED8003046394604F11A020123C0470130D4D0C4
:104EE80009F10109F2E70020BDE8F8832DE9FF4741
:104EF8000E7E0C9D6E2E80460C4691469A4601F118
:104F0800430000F0A58011D8632E22D009D8002EC6
:104F180000F0AF80582E40F0BF8081F845607B4A92
:104F28004FE0642E1ED0692E1CD0B5E0732E00F021
:104F3800A48009D86F2E2BD0702E40F0AD800B685E
:104F480043F020030B6038E0752E21D0782E34D042
:104F5800A2E02B681A1D1B682A6001F1420781F83C
:104F680042309DE022682B6812F0800F03D01A1D92
:104F78002A601D6805E05106F9D51A1D2A60B3F9A3
:104F88000050002D39DA2D236D4284F8433034E087
:104F980022682B6812F0800F03D01A1D2A601D6842
:104FA80004E05206F9D51A1D2A601D88237E574A47
:104FB8006F2B14BF0A2308231BE07823544A84F874
:104FC80045302368296813F0800F01F104062E602C
:104FD80001D00D6802E05F06FBD50D88DE0744BFEF
:104FE80043F0200323601DB9236823F020032360C6
:104FF8001023002184F8431001E0444A0A2366681C
:10500800A660002E03DB216821F00401216005B9A8
:105018006EB104F14201B5FBF3F603FB16550F46DA
:10502800555D01F801593546002EF4D100E00746D8
:10503800082B0AD12368DD0707D5626823699A42DD
:1050480003DC302307F8013C013FC01B20612CE042
:1050580009682B68626911F0800F04D0191D296056
:105068001B681A6005E04906F8D5191D29601B68F8
:105078001A8000232361074617E02B681A1D2A604F
:105088001F683846FFF734FD63682061984288BF7F
:1050980023612369636005E004F1420784F84260F4
:1050A80001232361002384F84330CDF800A0404653
:1050B800214603AA4B46FFF7A7FE013002D14FF065
:1050C800FF301FE0404649463A462369D047013041
:1050D800F5D023689B0705D4E068039B9842B8BFC6
:1050E80018460FE00025E268039BD31A9D42F3DAC5
:1050F8004046494604F119020123D0470130DED069
:105108000135F0E704B0BDE8F08700BFA3700008E0
:10511800B470000810B5C9B202449042034606D0E4
:105128001C788C4200F10100F7D1184610BD002010
:1051380010BD10B50023934203D0CC5CC454013396
:10514800F9E710BD814270B501D300230EE08C1839
:10515800A042FAD28518134613F1FF3305D3514202
:1051680066182944F65CCE54F6E770BD934203D026
:10517800CC5CC4540133F9E770BD000030B5002998
:105188003CD051F8042C0B1F1D49002AB8BF9B18AE
:105198000A680C4612B95A600B6030BD93420DD2B2
:1051A80019685818904203D15A5811444268196036
:1051B8005A60236030BD994203D80A4651680029D5
:1051C800F9D1146815199D420AD11B682344D018D7
:1051D8008842136012D10868034413604B680CE0DE
:1051E80002D90C23036030BD18681C188C4203D107
:1051F8000C684968204418605960536030BD00BF8E
:105208008C03002070B5CD1C25F0030508350C2D46
:1052180038BF0C25002D06463FDB8D423DD3214B80
:105228001C6818462146A1B10B685B1B0ED40B2BDA
:1052380003D90B60CC18CD501FE08C4202D16268B4
:1052480002601AE04B6863600C4616E00C46496839
:10525800E9E7154C23681BB9304600F04DF820608B
:105268002946304600F048F8431C014615D0C41CB6
:1052780024F0030484420AD1256004F10B00231DA5
:1052880020F00700C31A0BD05A42E25070BD3046D6
:10529800611A00F031F80130EED10C2333600020A0
:1052A80070BD00BF8C03002088030020F8B50646B7
:1052B80014460D4621B91146BDE8F840FFF7A2BFD4
:1052C8001AB9FFF75BFF2046F8BD00F025F8A042A9
:1052D8000ED230462146FFF795FF074650B12946C2
:1052E8002246FFF726FF30462946FFF747FF01E031
:1052F8002846F8BD3846F8BD38B5064C00230546A3
:1053080008462360FEF71AFC431C02D1236803B148
:105318002B6038BD9003002051F8040C002802DAF5
:1053280004390B5818440438704700002E2E2F7388
:10533800797374656D2F7372632F73746D3332666E
:10534800342D68616C2F73746D3332663478785FEE
:1053580068616C5F636F727465782E63000000008B
:105368002E2E2F73797374656D2F7372632F737478
:105378006D333266342D68616C2F73746D33326609
:105388003478785F68616C5F646D612E630000003B
:105398002E2E2F73797374656D2F7372632F737448
:1053A8006D333266342D68616C2F73746D333266D9
:1053B8003478785F68616C5F646D6132642E630075
:1053C8002E2E2F73797374656D2F7372632F737418
:1053D8006D333266342D68616C2F73746D333266A9
:1053E8003478785F68616C5F6770696F2E6300005E
:1053F8002E2E2F73797374656D2F7372632F7374E8
:105408006D333266342D68616C2F73746D33326678
:105418003478785F68616C5F6C7464632E63000035
:105428000000000001020304010203040607080942
:105438002E2E2F73797374656D2F7372632F7374A7
:105448006D333266342D68616C2F73746D33326638
:105458003478785F68616C5F7263632E6300000064
:105468002E2E2F73797374656D2F7372632F737477
:105478006D333266342D68616C2F73746D33326608
:105488003478785F68616C5F7263635F65782E63F8
:10549800000000002E2E2F73797374656D2F7372C0
:1054A800632F73746D333266342D68616C2F737497
:1054B8006D3332663478785F68616C5F7370692E1B
:1054C800630000002E2E2F73797374656D2F73722D
:1054D800632F73746D333266342D68616C2F737467
:1054E8006D3332663478785F6C6C5F666D632E63FB
:1054F8000000000061626F727428292C20657869A9
:1055080074696E672E2E2E002C2066756E63746982
:105518006F6E3A2000000000617373657274696FE2
:105528006E2022257322206661696C65643A2066C4
:10553800696C6520222573222C206C696E652025F4
:1055480064257325730A00006173736572745F7054
:105558006172616D2829206661696C65643A20660C
:10556800696C6520222573222C206C696E652025C4
:10557800640A00000A0000006D61696E28617267A4
:10558800633D25642C20617267763D5B0000000056
:105598002C20000022257322000000005D293B0A10
:1055A80000000000000000000000000000000000F3
:1055B80000000000000000000000000000000000E3
:1055C80000000000000000000000000000000000D3
:1055D80000000000000000000000000000000000C3
:1055E80000000000000000000000000000000000B3
:1055F8000000038000038000038000038000038014
:105608000003800003800003800003800001000085
:10561800010000000000000000038000038000007B
:105628000000000000000000000000000000000072
:10563800000000000000000000000000000E7000E4
:105648000E70000E700004200004200004200004E6
:105658002000000000000000000000000000000022
:105668000000000000000000000000000000000032
:105678000000000000000000000000000000000022
:105688000000066000066000066000066000066014
:10569800003FF8003FF8000660000CC0003FF8002B
:1056A8003FF8000CC0000CC0000CC0000CC0000C7F
:1056B800C000000000000000000000000000000022
:1056C8000000000000000001800001800007B00019
:1056D8000FF0001870001870001C00000F80000701
:1056E800E00000F0001830001C30001C70001FE0C3
:1056F800001BC000018000018000018000018000C3
:105708000000000000000000000000000000000091
:1057180000000780000FC0001CE00018600018603F
:10572800001CE0000FF80007E0001FF00007380039
:1057380006180006180007380003F00001E0000012
:105748000000000000000000000000000000000051
:105758000000000000000000000000000000000041
:1057680003F00007F0000C60000C00000C000006BD
:1057780000000700000F9C001DFC0018F0001870C6
:10578800000FFC0007DC0000000000000000000023
:105798000000000000000000000000000000000001
:1057A8000000000000038000038000038000010067
:1057B80000010000010000010000000000000000DE
:1057C80000000000000000000000000000000000D1
:1057D80000000000000000000000000000000000C1
:1057E8000000000000000000000000180000380061
:1057F80000700000F00000E00000E00001C00001BF
:10580800C00001C00001C00001C00001C00000E0EC
:105818000000E00000700000700000380000180070
:105828000000000000000000000000000000000070
:1058380000001800001C00000E00000E0000070009
:10584800000700000380000380000380000380003D
:105858000380000380000700000700000F00000E0F
:1058680000001C00001800000000000000000000FC
:10587800000000000000000000000180000180001E
:105888000180001DB8001FF80007E00003C00003F6
:10589800C000066000066000000000000000000074
:1058A80000000000000000000000000000000000F0
:1058B80000000000000000000000000000000000E0
:1058C800000000000000000001800001800001804D
:1058D800000180000180003FFC003FFC00018000C7
:1058E80001800001800001800001800000000000AC
:1058F80000000000000000000000000000000000A0
:10590800000000000000000000000000000000008F
:10591800000000000000000000000000000000007F
:10592800000000000000000000000000000000E08F
:105938000000C00001C000018000018000030000D9
:10594800030000000000000000000000000000004C
:10595800000000000000000000000000000000003F
:10596800000000000000001FF8001FF80000000001
:10597800000000000000000000000000000000001F
:10598800000000000000000000000000000000000F
:1059980000000000000000000000000000000000FF
:1059A80000000000000000000000000000000000EF
:1059B800000000000000000000000000000003C01C
:1059C8000003C00003C00000000000000000000049
:1059D80000000000000000000000000000180000A7
:1059E80018000038000030000070000060000060FF
:1059F8000000C00000C0000180000180000300001A
:105A08000300000600000600000E00000C00001C49
:105A1800000018000018000000000000000000004E
:105A28000000000000000000000003C00007E000C4
:105A38000C30000C3000181800181800181800183E
:105A480018001818001818001818000C30000C302E
:105A58000007E00003C00000000000000000000094
:105A6800000000000000000000000000000000002E
:105A780000000080000780001F80001D800001805A
:105A88000001800001800001800001800001800089
:105A98000180000180000180001FF8001FF800004D
:105AA80000000000000000000000000000000000EE
:105AB8000000000000000000000007C0001FF00008
:105AC800383000301800301800001800003000008E
