:020000040800F2
:1000000058360020C10100089D3800089F380008BC
:10001000A1380008A3380008A53800080000000037
:10002000000000000000000000000000A7380008E9
:10003000A938000800000000AB380008AF380008FD
:10004000DB010008DB010008DB010008DB01000820
:10005000DB010008DB010008DB010008DB01000810
:10006000DB010008DB010008DB010008DB01000800
:10007000DB010008DB010008DB010008DB010008F0
:10008000DB010008DB010008DB010008DB010008E0
:10009000DB010008DB010008DB010008DB010008D0
:1000A000DB010008DB010008DB010008DB010008C0
:1000B000DB010008DB010008DB010008DB010008B0
:1000C000DB010008DB010008DB010008DB010008A0
:1000D000DB010008DB010008DB010008DB01000890
:1000E000DB010008DB010008DB010008DB01000880
:1000F000DB010008DB010008DB010008DB01000870
:10010000DB010008DB010008DB010008DB0100085F
:10011000DB010008DB010008DB010008DB0100084F
:10012000DB010008DB010008DB010008DB0100083F
:10013000DB010008DB010008DB010008DB0100082F
:10014000DB010008DB010008DB010008DB0100081F
:10015000DB010008DB010008DB010008DB0100080F
:10016000DB010008DB010008DB010008DB010008FF
:10017000DB010008DB010008DB010008DB010008EF
:10018000DB010008DB010008DB010008DB010008DF
:10019000DB010008DB010008DB010008DB010008CF
:1001A000DB010008DB010008DB010008DFF80CD0F0
:1001B00003F04EFC00480047AD37000858360020D9
:1001C0000648804706480047FEE7FEE7FEE7FEE7F1
:1001D000FEE7FEE7FEE7FEE7FEE7FEE77739000809
:1001E000AD010008F948016841F001010160F74ADA
:1001F0000021083211600268F54B1A400260031DAD
:10020000F44A1A60F14BF44A84331A60F14A103A06
:100210001B1D1A60026822F480220260EB480C3039
:100220000160181D01607047E8490022891C0A70AE
:100230000870704702460020510901290CD002299C
:100240000CD0E2497431096802F01F020123934087
:100250000B4200D001207047DC49F4E7DB497031E4
:10026000F1E718B500204FF4A04400903120FFF7CB
:10027000E1FF0099491C0091A14201D00028F5D06E
:100280003120FFF7D7FF002800D0012018BDCF4A4A
:10029000116821F0F80141EAC00010607047CF49B1
:1002A00008607047C949002270310A700A7001283D
:1002B00002D0042801D1052008707047C8490860A1
:1002C000704741EA82115A0810B5C64B029C03EBF5
:1002D00002421143014341EA0460BC49091D086020
:1002E00010BDBE4908667047800140EA0160B74909
:1002F00040EA0270843108607047B84988667047E8
:10030000800140EA0160B14940EA0270883108602A
:100310007047B24908677047B049C8647047AB4B33
:1003200008331A68084322F0EC62104318607047E3
:10033000A64B08331A68084322F07842104318602D
:100340007047A24A0832116821F00301014311608D
:1003500070479E480830006800F00C0070479B4AC8
:100360000832116821F0F001014311607047974A8B
:100370000832116821F4E051014311607047934A3B
:100380000832116821F4604141EAC00010607047F2
:1003900070B58E4B08331968934C11F00C0104D0E2
:1003A0006610042903D0082903D004601BE006600E
:1003B00019E0864A121D1168C1F38055116801F0D9
:1003C0003F0115B1B6FBF1F101E0B4FBF1F11468A6
:1003D0001268C4F388146143C2F30142521C5200F4
:1003E000B1FBF2F1016019680F2202EA11117F4A94
:1003F000545C0168E14041601C68072505EA9424CB
:10040000145D21FA04F484601B6805EA5333D25C5E
:10041000D140C16070BDC0F30121032908D16B4BED
:1004200008331968724A21F4F81102400A431A602D
:10043000664970310A68C0F30B0002430A607047D6
:10044000674944390860704765494039086070471A
:100450006249C1F85C0170475C4A8C32116821F432
:100460004011014311607047584A8C32116821F4E1
:100470004001014311607047544A8C321168401E9C
:1004800021F01F01014311607047504A8C321168FE
:100490006FF0FF0321F4F85103EB002008431060D4
:1004A00070474A4A8C32116821F44031014311608F
:1004B00070475049C1F8E0017047444A3032002982
:1004C000116801D0014300E08143116070473F4A49
:1004D00034320029116801D0014300E081431160EA
:1004E00070473A4A38320029116801D0014300E0D0
:1004F000814311607047354A40320029116801D0AC
:10050000014300E0814311607047304A44320029C2
:10051000116801D0014300E08143116070472B4A0C
:1005200010320029116801D0014300E081431160BD
:100530007047264A14320029116801D0014300E0B7
:10054000814311607047214A18320029116801D097
:10055000014300E08143116070471C4A20320029AA
:10056000116801D0014300E0814311607047174AD0
:1005700024320029116801D0014300E08143116059
:100580007047124A50320029116801D0014300E03F
:100590008143116070470D4A54320029116801D01F
:1005A000014300E0814311607047084A5832002936
:1005B000116801D0014300E0814311607047034A94
:1005C00060320029116817D0014316E0003802405C
:1005D000FFFFF6EA10300024003000200000474200
:1005E000800E47420000FFFF0024F40000000020BE
:1005F000FFFCFF0F00104742814311607047194A0A
:100600000029116801D0014300E081431160704767
:1006100014490C310128086803D020F00800086054
:10062000704740F00800FAE70E4A573A002911785F
:1006300001D0014300E08143117070470948103038
:10064000016841F08071016070470146054A002051
:10065000583A12680A4200D00120704701495639C1
:100660000870704764380240774910B5884206D157
:1006700001210846FFF753FF002101205BE0734989
:10068000884206D101210220FFF749FF0021022004
:1006900051E06F49884206D101210420FFF73FFF56
:1006A0000021042047E06B49884206D1012108203F
:1006B000FFF735FF002108203DE06749884206D159
:1006C00001211020FFF72BFF0021102033E06349A8
:1006D000884206D101212020FFF721FF00212020A0
:1006E00029E05F49884206D101214020FFF717FF2A
:1006F000002140201FE05B49884206D10121802073
:10070000FFF70DFF0021802015E05749884202D1F4
:10071000012184150AE05549884202D1012144157E
:1007200004E0534988420AD1012104152046FFF70D
:10073000F6FE00212046BDE81040FFF7F0BE10BDD8
:10074000F0B5002201274FF0030C0B6807FA02F501
:100750002B40AB422CD1066853000CFA03F4A6439D
:1007600006600E79D0F800E09E4046EA0E0606606C
:100770000E79012E01D0022E12D18668A643866022
:100780004E79D0F808E09E4046EA0E06866046683C
:10079000AE43466045688E799640B6B235434560B3
:1007A000C568A543C560CC799C40C3681C43C46040
:1007B000521C102AC9D3F0BD4FF6FF710160002111
:1007C000017141718171C171704708B541F4803286
:1007D0000092C261C1610099C161C169C0690090A4
:1007E00008BD0246002012690A4200D0012070476D
:1007F000006980B270470246002052690A4200D068
:1008000001207047406980B270470183704741837F
:1008100070470AB101837047418370474161704757
:1008200042694A40426170474B07DB0E9A40C90853
:1008300010B500EB8100016A0F249C40A1430162C6
:10084000016A1143016210BD000002400004024031
:1008500000080240000C0240001002400014024058
:1008600000180240001C0240002002400024024008
:10087000002802408100A1F1C04140B143F2D20002
:1008800008606FF070404860C1F8040170474FF095
:10089000204243F2DB001060F3E730B501688900C5
:1008A000A1F1C0410B68FE4A1340D0E90124224364
:1008B000D0E903452C4322434469224384692243FF
:1008C000C4692243046A2243446A2243846A22435D
:1008D000C46A2243046B2243446B22431A430A60D6
:1008E0008168082907D101688900A1F1C0410A681F
:1008F00042F040020A60416BB1F5801F15D10168DA
:1009000099B14FF020414A680B6822F4700243F419
:1009100080130B600B6843F480730B60836BE14CB6
:100920001B8A04EB035313434B60816BD1E9002313
:1009300042EA03128B688C891B0243EA04431A4380
:100940000B8A42EA03520B7D896942EA03620A4339
:1009500001688900A1F1C0414A60816AB1F5804F08
:1009600008D000686FF070418000A0F1C040C0F86E
:10097000041130BDC16BD1E9002342EA03128B6838
:100980000C8A1B0243EA04531A430B7D896942EA2D
:10099000036200680A438000A0F1C040C0F804214F
:1009A00030BD00210222C0E900121022C0E902126B
:1009B0000161C162416112028161C0E90712520006
:1009C000C0E9092101634163B7498163C16370478D
:1009D0008000A0F1C0400029016802D041F001016F
:1009E00001E0B24A11400160704710B5182340245D
:1009F0004FF020414FF0FC32102805D041F8803FE5
:100A00004C608A60CA6010BD0B664C668A66CA6616
:100A100010BD30B502684FF02041102A1BD0D1F82C
:100A20008020A34B02EA0302D0E9013443EA040325
:100A3000D0E9034544EA050443EA0403446943EA70
:100A40004423846943EA443343EA020343F008043D
:100A500003D18A6E03E00A6EE3E7D1F88820C26909
:100A6000D2E9003543EA05231589127B4FEA054593
:100A700045EA026243EA020301D1CA6E01E0D1F8FD
:100A80008C20006AD0E9002542EA05220589007B16
:100A90004FEA054545EA006042EA000203D10C66D0
:100AA0008B66CA6630BD41F8804F8B60CA6030BD2E
:100AB00010220021C0E90021C0E902210161416149
:100AC0008161C269FC211160C2695160C269916093
:100AD000C269D160026A1160026A5160026A916063
:100AE000006AC16070474FF0204251B1102804D015
:100AF00052F8800F40F004000AE0106E40F004004D
:100B00000AE06A49C91E102804D052F8800F084034
:100B100010607047106E0840106670474FF020421A
:100B200051B1102804D052F8800F40F040000AE084
:100B3000106E40F040000AE05C493F39102804D0B4
:100B400052F8800F084010607047106E0840106621
:100B500070474FF02041102802D0D1F89400704720
:100B6000486F70474FF02040182140F8A01F002127
:100B700041604FF0FC318160C1600161704710B588
:100B80004FF0204151F8A02F4A4B84681A40436827
:100B90005B0243EA443304681443234343F01002E6
:100BA0000A608A68C268D2E9003443EA04231489DF
:100BB000127B240444EA026213438B60CA68026910
:100BC000D2E9003443EA04231489127B240444EA62
:100BD00002621343CB600A694069D0E9002342EA0C
:100BE00003220389007B1B0443EA006002430A617D
:100BF00010BD0021016041608160C268FC2111606C
:100C0000C2685160C2689160C268D16002691160B7
:100C100002695160026991600269D16042691160A4
:100C200042695160426991604069C16070474FF00C
:100C30002041002851F8A00F02D040F0040002E04B
:100C40001A4AD21E1040086070478000A0F1C040D0
:100C50004FF43471C0F840116FF07041C0F8481182
:100C60004FF020410020C1F85001C1F85401C1F8F3
:100C700058017047F0B50668B100A1F1C041D1F844
:100C80004011CD0BD0E901121143D0E903231A43DF
:100C900011434269ED03114382691143C2690BE0BC
:100CA0008000E7FF0000F0FF943A0008FEFF0F000D
:100CB0008101F0FFCD01FEFF046A1143436A214325
:100CC000194329434FF02045F6B3D5F8406122433C
:100CD0006FF30E0633431A43C5F8402102689200B1
:100CE000A2F1C042C2F840116FF00F0213011403C9
:100CF0000168160449B38900A1F1C041D1F8481137
:100D000001F0704C816AD1E9007E02EB0E127F1E69
:100D100017438A6803EB022217430A8A04EB024254
:100D20001743D5F8482147EA0C0702F07043CA6818
:100D3000898A120306EB0151A2F580520A431A4335
:100D4000C5F84821006801E006E008E08000A0F155
:100D5000C040C0F84871F0BDC5F84011C4E7D5F8EF
:100D60004811806A01F07047D0E9001C02EB0C12B8
:100D7000491E1143826803EB02221143924BC26861
:100D800003EB02321143028A04EB02421143828ACE
:100D9000007E06EB025211431A0302EB006001438E
:100DA0003943C5F84811F0BD0022026042601021AD
:100DB00040238260C0E90313802343614B01C0E9F3
:100DC000063202624262826A1160826A5160826AFD
:100DD0009160826AD160826A1161826A5161806A1F
:100DE00081617047D0E90012114382686FF01F03E0
:100DF000C06803EB421242EA402001434FF020401A
:100E0000C0F8501170474FF020410028D1F8580128
:100E100003D000F018008008704700F0060070470B
:100E20004FF02041D1F8542142EA4000C1F854016A
:100E300070474FF02041D1F8502142EA4010C1F8EC
:100E4000500170478000A0F1C0400029D0F8401147
:100E500002D041F4007102E047F6FF521140C0F8A1
:100E60004011704730B54FF480752C014FF020438E
:100E7000A2B1102804D0A84205D153F8840F06E08F
:100E8000586E084313E0A04204D153F8A40F08435E
:100E9000186030BDD3F85401084313E0102804D083
:100EA000A84206D153F8840F07E0586E884358666D
:100EB00030BDA04203D153F8A40F8843E8E7D3F82C
:100EC00054018843C3F8540130BD00224FF0204341
:100ED00010280AD0B0F5807F09D0B0F5805F09D026
:100EE000D3F85801814309D107E0586EFAE7D3F8E7
:100EF0008400F7E7D3F8A400F4E701221046704716
:100F00004FF0204210280BD0B0F5807F0CD0B0F508
:100F1000805F0CD0D2F854018843C2F85401704766
:100F2000506E88435066704752F8840F01E052F8C3
:100F3000A40F88431060704730B500231C464FF063
:100F40002045102815D0B0F5807F14D0B0F5805F13
:100F500014D0D5F85421D5F8584102EA010580B1E2
:100F600001280ED002EAD10008B105B101231846CC
:100F700030BD6A6EF1E7D5F88420EEE7D5F8A420FD
:100F8000EBE704F00100EFE74FF0204210280CD00F
:100F9000B0F5807F0ED0B0F5805F0ED0D2F854014E
:100FA00040F00100C2F854017047506E20EAD100B1
:100FB0005066704752F8840F01E052F8A40F20EAFF
:100FC000D10010607047000000F0FFFF10B5012154
:100FD0008C062046FFF7CBFA2046BDE810400021E2
:100FE000FFF7C5BA30B5F74A1368F7490B401360ED
:100FF000038A146845692C4344EA03441460121DB3
:1010000013680B401360038B1468C5692C4344EAD2
:1010100003441460121D13680B401360038C1468A2
:10102000456A2C4344EA03441460121D13680B40C4
:101030001360018D1368C46A234343EA01431360BC
:10104000111D0A68E14B1A400A60D0E900231A43D7
:10105000D0E9023423431A430B681A430A60416BF8
:101060000A02018E0B04D74924310C6804F07F4436
:101070000C600C68806B134304431C430C6030BD50
:101080000021016041608160C16001614161816155
:10109000C161016241628162C16201634163816336
:1010A0007047C84910310028086802D040F001009C
:1010B00001E020F0010008607047C24910310028AB
:1010C000086802D040F4803001E020F480300860ED
:1010D0007047BC4910310A68BC4B1A400A600A6864
:1010E0000B68C2F302120968C3F30223C1F3023191
:1010F0000260C0E9013170470221016041608160F6
:101100007047B049383108607047AE491C310860FB
:10111000704770B58A88436803F4704343600B6876
:1011200043EA024343608A89836803F4704383601F
:101130008B6843EA02438360026922F0070202617E
:101140000A690261CA6991F8243014020A8C85691F
:101150001204002686618D6942EA03622543154325
:101160008561426922F0FF0242614A694261C269B7
:1011700040F207739A43C261D1E90A231A43C2615C
:10118000826A86620A6B82620A8FC36A03F0E02376
:10119000C3624B6B43EA0243C362026B6FF30A0202
:1011A0000263C96B016370BD002101604160816011
:1011B000FF22C160C0E904128161C1614FF4C062C5
:1011C0000162C0E909120722C0E90B214163816372
:1011D000C16370470029016802D041F0010101E0BC
:1011E00021F001010160704776493C310A68002214
:1011F0000A600A680968120C89B2C0E900217047C8
:1012000000210160416070476E4940310968014228
:1012100001D0012070470020704710B592B10268DC
:1012200042F0020202604A68C46813020A8904F0AC
:101230007F44C460C468096843EA02430C431C430A
:10124000C46003E0016821F0020101605D490120F2
:101250001C31086010BD0021016041608160704751
:101260000029016802D041F0100101E021F01001D5
:101270000160544901201C310860704710B58A682C
:1012800014028A8913040A7849681C4341EA0261FE
:101290002143016410BD0021016041608160C16093
:1012A000704710B5436803F470434360836803F4E8
:1012B00070438360434B1B1D1C6801EB144312FAFF
:1012C00084F20169521C5B1CF1B101291ED0042972
:1012D0001ED002291CD003291AD0072918D00121B9
:1012E000C46AC4F30C04E41EB4FBF1F1046B1944AA
:1012F000491EC4F30A0443EA014114444160641ED8
:1013000042EA0441816010BD0421E9E70321E7E7D7
:101310000221E5E74161704781627047F0B50369DA
:101320000BB3012B21D0042B21D0022B1FD0032B78
:101330001DD0072B1BD001234468C4F30C0584681F
:101340004E19C4F30C041719761E45EA064545608C
:101350007F1E44EA074484605943CB1C43EA0141A1
:10136000C1620263F0BD0423E6E70323E4E702233E
:10137000E2E702690AB3012A21D0042A28D0022A0E
:1013800026D0032A24D0072A22D00122C36A1B0CAC
:10139000B3FBF2F3F1B101291ED004291ED00229BA
:1013A0001CD003291AD0072918D001225343DA1C74
:1013B00042EA0342C262016170470422E6E7032267
:1013C000E4E700000868014000F800F08F88FE0F95
:1013D0000222DBE70422E9E70322E7E70222E5E74E
:1013E000144A0029116801D0014300E081431160D3
:1013F000704701460F4A0020121D12680A4200D0B1
:10140000012070470B49083108607047094A0021E4
:10141000121D1268024200D00121064A12680242DF
:1014200002D009B1012070470020704701490831FE
:101430000860704734680140C14910B5884202D144
:101440000121841424E0BF49884202D101210414FF
:1014500004E0BD4988420AD10121C4132046FFF7A8
:101460007CF82046BDE810400021FFF776B8B74968
:10147000884202D1012144140AE0B549884202D1D0
:1014800001210C0504E0B34988420AD101214C0531
:101490002046FFF76CF82046BDE810400021FFF71A
:1014A00066B810BD30B502884C8802F441530A88F2
:1014B000CD8822438C882C4322430C8922434C89BB
:1014C00022438C892243CC8922431A430280828B97
:1014D00022F400628283098A018230BDF0B50222C3
:1014E0000023858B01244FF240063540858302841A
:1014F000868B8D68022D3DD08A8802B10224964ADF
:1015000013681B0203D5136823F400031360924A87
:101510007C3213681268C3F388138F4FC2F30272D0
:101520003F1F3D683F6805F03F057F0201D58B4FA7
:1015300000E08B4FB7FBF5F55D43B5FBF2F2CB88CE
:10154000B3F5007F2BD06301B2FBF3F202EB820212
:101550008B685200B2FBF3F2521D92B20A23B2FB27
:10156000F3F202F00103D21A4FF6FF74C2F34F02F6
:1015700004EA0323941EFE2C01D302220023CC880C
:101580001A43144304840A884B881A438B88898938
:101590000B431A43324342F400618183F0BD120AC7
:1015A000D4E70021018041808180C1800181418197
:1015B0008181C18107210182704700210180418022
:1015C0008180C18002228260818170470029018868
:1015D00002D041F0400101E021F04001018070475C
:1015E0000029818B02D041F4806101E021F4806107
:1015F00081837047028822F40062028002880A43D5
:1016000002807047B1F5804F018803D021F48041FA
:101610000180704741F48041FAE7A1F57E420188DC
:10162000FF3A02D041F4807101E021F48071018021
:1016300070470029818802D041F0040101E021F0C7
:101640000401818070470029818802D041F0100197
:1016500001E021F010018180704730B5828B0023BA
:101660004FF240042240828302220284848B0A8843
:101670004FF48075B2F5007F00D002B92B464A883E
:101680008D8889892A4319430A43224342F4006121
:10169000818330BD8089704781817047002901882E
:1016A00002D041F4005101E021F400510180704763
:1016B000018841F4805101807047012901D0008BDD
:1016C0007047808A7047008A7047002A828801D05C
:1016D0000A4300E08A4382807047090901238B4056
:1016E000002A828899B201D00A4300E08A438280AE
:1016F00070470246002012890A4200D0012070473C
:10170000C9430181704730B501F00F03012502463E
:1017100005FA03F40020A3B2090905FA01F491883F
:10172000A4B2128921401A4202D0002900D001201F
:1017300030BD01F00F0201219140C9430181704782
:101740000030014000380040003C004000340140BF
:1017500000500140005401400838024000127A0055
:101760000024F40010B501210C022046FEF7FFFE14
:101770002046BDE810400021FEF7F9BE30B54268B2
:10178000C84B0C791A400B6842EA042213434360A9
:101790008268C54B4D791A40D1E9034323438C68D5
:1017A00044EA4504234313438360C26A097D22F45B
:1017B0007002491EC9B242EA0151C16230BD002126
:1017C0000160017141718160C16001610121017598
:1017D0007047B64B10B5D3F80423B5490A40D0E999
:1017E00000142143D0E90240044321431143C3F8CC
:1017F000041310BD0021016041608160C160704729
:101800000029816802D041F0010101E021F00101CD
:10181000816070474268A74B1A400A434260704794
:10182000416282627047426822F01F020A434260AE
:1018300070479E490028D1F8040302D040F400000C
:1018400001E020F40000C1F8040370479749002824
:10185000D1F8040302D040F4800001E020F48000BD
:10186000C1F80403704770B5072609290AD9C5686D
:10187000A1F10A0404EB4404A640B543A3401D4370
:10188000C56007E0056901EB4104A640B543A340EC
:101890001D4305611F23072A09D2446B521E02EB28
:1018A000820293409C4391400C43446370BD0D2AD7
:1018B00009D2046BD21F02EB820293409C439140F9
:1018C0000C43046370BDC46A0D3A02EB820293407C
:1018D0009C4391400C43C46270BD816841F08041DB
:1018E00081607047014600208968490000D50120C9
:1018F00070470029816802D041F4806101E021F441
:101900008061816070470029816802D041F0020146
:1019100001E021F00201816070474268491E22F413
:10192000604242EA4131416070470029416802D07B
:1019300041F4006101E021F4006141607047C06C36
:1019400080B270475948D0F8080370470029816871
:1019500002D041F4807101E021F480718160704710
:101960000029816802D041F4007101E021F4007186
:10197000816070474D490028D1F8040302D040F43B
:10198000005001E020F40050C1F80403704770B526
:10199000072609290AD9C568A1F10A0404EB440401
:1019A000A640B543A3401D43C56007E0056901EBB0
:1019B0004104A640B543A3401D430561836BC3F3B7
:1019C0000154121B921C02EB82021F249440A34379
:1019D00091400B43836370BD826B491E22F4401219
:1019E00042EA01518163704708B5084400900260E3
:1019F00008BD826822F470220A43826070478268C0
:101A000022F440120A4382607047816841F48001E9
:101A100081607047014600208968490200D5012095
:101A200070470029416802D041F4806101E021F44F
:101A30008061416070470029416802D041F48051C3
:101A400001E021F480514160704708B50844283016
:101A50000090006880B208BD01238B4041680AB144
:101A6000194300E099434160704702460020126824
:101A70000A4200D001207047C9430160704730B569
:101A80000246002053680C0A01258D4011682B4046
:101A9000214202D0002B00D0012030BD6FEA11217D
:101AA00001607047FFFEFFFCFDF7FFC00020014012
:101AB000E030FCFFFFFD3FFF234810B54168491CA3
:101AC0004160816811B18168491E8160AFF3008077
:101AD00010BD10B51C4C2078002821D10120FEF744
:101AE000A3FBFEF7BEFB0028FBD0184801684FF4AB
:101AF0007A70B1FBF0F0401EB0F1807F11D24FF050
:101B0000E0225061124BF02083F8140D0020906108
:101B1000072010610F48B1FBF0F0E0600120207059
:101B200010BDFEE708480078002805D04FF0E020FF
:101B3000016941F00201016170474FF0E020016945
:101B400021F00201016170471000002034000020E4
:101B50000FE000E0C0C62D006C4A6D49904203D1F1
:101B6000086840F0010005E06A4A904204D1086824
:101B700040F0020008607047674A904203D108684D
:101B800040F00400F6E7654A904203D1086840F04F
:101B90000800EFE7624A904203D1086840F0100065
:101BA000E8E7604A904203D1086840F02000E1E78E
:101BB0005D4A904203D1086840F04000DAE75B4A92
:101BC000904203D1086840F08000D3E7584A904221
:101BD00003D1086840F48070CCE7564A904203D1A4
:101BE000086840F40070C5E7534A9042C3D10868C2
:101BF00040F48060BEE72DE9F0411546DDE9067648
:101C00000C0084460DD0FFF7A7FF4C480146057134
:101C100083710460C7714671BDE8F0416046FEF70C
:101C20008FBDBDE8F0812DE9FC418046DDE9080764
:101C30000D001AD0CDE90030134602224046FFF7CE
:101C4000DAFF0024012606FA04F028420AD0002117
:101C500001E04008491C0128FBD889B23A464046B9
:101C6000FEF7E2FD641C102CEDD3BDE8FC81274A91
:101C70002749904203D1086820F0010005E0254A79
:101C8000904204D1086820F0020008607047224AA0
:101C9000904203D1086820F00400F6E71F4A904202
:101CA00003D1086820F00800EFE71D4A904203D1F5
:101CB000086820F01000E8E71A4A904203D108684B
:101CC00020F02000E1E7184A904203D1086820F094
:101CD0004000DAE7154A904203D1086820F08000FE
:101CE000D3E7134A904203D1086820F48070CCE710
:101CF000104A904203D1086820F40070C5E70E4AEC
:101D00009042C3D1086820F48060BEE70000024022
:101D1000303802400004024000080240000C02403B
:101D2000001002400014024000180240001C024053
:101D30000020024000240240002802402000002031
:101D40000288520601D40020704702899207FCD015
:101D500002891206F9D4818101898907FCD00189A1
:101D60000906F9D48089C0B27047FF48002181601C
:101D70004171704730B5FC4A4FF41634002180B2EF
:101D8000A1F140539568891CA142E852F8D330BDB7
:101D9000F5484FF41631816001214171704730B52B
:101DA00091B01E20009040F20D100190042002908E
:101DB00040F24310039002200490FF200590002081
:101DC00006900790089009904FF480600A900520D3
:101DD0000B9040F2E3100D90C01E0E904FF4A070D7
:101DE0000F904FF05040E14C0C9069462046FFF7B1
:101DF00090F9DF490C914FF4C0610A91DB4D072146
:101E00000B91803569462846FFF783F90120FFF7DB
:101E10007CF901212046FFF7DDF901212846FFF773
:101E2000D9F90120FFF771F90120FFF746F90120E8
:101E3000FFF737F9FF212046FFF76CFA002128460B
:101E4000FFF768FA0120FFF760F911B030BDC9480B
:101E500000B501688FB041F080610160C548143859
:101E6000016841F40001016000200290039000909D
:101E700001900C900D900E9004220721C020FEF7D7
:101E80003FFA4FF48030FEF70CFB0120FEF741FAD9
:101E90003D20FEF7CFF90028FAD009200490012058
:101EA00005901D2006900320079040F20D10089029
:101EB00040F24310099040F217100A9040F2471088
:101EC0000B906846FFF78EF80FB000BDAA4B10B517
:101ED0004FF400521A80A94A042414800146A848ED
:101EE000FFF72EFFA548801E048010BD01B50098A5
:101EF00001E0401E00900028FBD108BD9E4B10B5AC
:101F00009B1E4FF400521A809C4A04241480014600
:101F10009B48FFF715FF9948801E048010BD10B53F
:101F2000CA20FFF7D3FFC320FFF7E8FF0820FFF721
:101F3000E5FF5020FFF7E2FFCF20FFF7C7FF0020AB
:101F4000FFF7DCFFC120FFF7D9FF3020FFF7D6FFF6
:101F5000ED20FFF7BBFF6420FFF7D0FF0320FFF762
:101F6000CDFF1220FFF7CAFF8120FFF7C7FFE8204F
:101F7000FFF7ACFF8520FFF7C1FF0020FFF7BEFF92
:101F80007820FFF7BBFFCB20FFF7A0FF3920FFF73A
:101F9000B5FF2C20FFF7B2FF0020FFF7AFFF342082
:101FA000FFF7ACFF0220FFF7A9FFF720FFF78EFF36
:101FB0002020FFF7A3FFEA20FFF788FF0020FFF7AC
:101FC0009DFF0020FFF79AFFB120FFF77FFF002061
:101FD000FFF794FF1B20FFF791FFB620FFF776FF76
:101FE0000A20FFF78BFFA220FFF788FFC020FFF732
:101FF0006DFF1020FFF782FFC120FFF767FF102061
:10200000FFF77CFFC520FFF761FF4520FFF776FF54
:102010001520FFF773FFC720FFF758FF9020FFF749
:102020006DFF3620FFF752FFC820FFF767FFF22051
:10203000FFF74CFF0020FFF761FFB020FFF746FFDE
:10204000C220FFF75BFFB620FFF740FF0A20FFF733
:1020500055FFA720FFF752FF2720FFF74FFF04206F
:10206000FFF74CFF2A20FFF731FF0020FFF746FF64
:102070000020FFF743FF0020FFF740FFEF20FFF7AE
:102080003DFF2B20FFF722FF0020FFF737FF002046
:10209000FFF734FF0120FFF731FF3F20FFF72EFF4E
:1020A000F620FFF713FF0120FFF728FF0020FFF7BE
:1020B00025FF0620FFF722FF2C20FFF707FF314CFA
:1020C0002046FFF713FF2620FFF700FF0120FFF750
:1020D00015FFE020FFF7FAFE0F20FFF70FFF292082
:1020E000FFF70CFF2420FFF709FF0C20FFF706FF86
:1020F0000E20FFF703FF0920FFF700FF4E20FFF738
:10210000FDFE7820FFF7FAFE3C20FFF7F7FE0920DE
:10211000FFF7F4FE1320FFF7F1FE0520FFF7EEFEB8
:102120001720FFF7EBFE1120FFF7E8FE0020FFF776
:10213000E5FEE120FFF7CAFE0020FFF7DFFE1620D4
:10214000FFF7DCFE1B20FFF7D9FE0420FFF7D6FEC9
:102150001120FFF7D3FE0720FFF7D0FE3120FFF755
:10216000CDFE332010E000004800002084680140CC
:10217000005802D0443802401A0C02401A080240AB
:102180000050014040420F00FFF7B8FE4220FFF729
:10219000B5FE0520FFF7B2FE0C20FFF7AFFE0A20C8
:1021A000FFF7ACFE2820FFF7A9FE2F20FFF7A6FEC1
:1021B0000F20FFF7A3FE1120FFF788FE2046FFF750
:1021C00095FE2920FFF782FEBDE810402C207DE619
:1021D0002DE9FC4701240025DFF80C94CDE90054DB
:1021E0002B46224661034846FFF705FDFF4FCDE928
:1021F00000540023012204213846FFF7FCFC0E2581
:10220000032400231A4641F65801F948CDE9004558
:10221000FFF709FD0926DFF8DC83CDE9004600233E
:102220001A4603214046FFF7FEFC00231A464FF4EE
:1022300070614046CDE90045FFF7F5FC00231A46E2
:102240004FF498613846CDE90045FFF7ECFC0023D8
:102250001A464FF489614846CDE90045FFF7E3FC93
:1022600000231A463915E448CDE90045FFF7DBFCA9
:10227000CDE90045E14D00231A464FF40C61284694
:10228000FFF7D1FCCDE9004600231A464FF4A051D8
:102290002846FFF7C8FCBDE8FC8710B5FFF798FF9C
:1022A000D2490420183108800021D54800F03AFFB7
:1022B00000F0E6FCFFF733FEFFF7C9FDFFF76FFD07
:1022C000D0480021F02241800180CF4802804FF4A5
:1022D000A07242800122027181734171FF228160EC
:1022E00002734173FFF741FD4FF6FF742046FFF77D
:1022F00041FDFFF74DFD2046FFF73CFDBDE81040D6
:1023000033E510B52920FFF7E1FDBDE810400120BD
:10231000FEF7C7BE10B52820FFF7D8FDBDE8104076
:102320000020FEF7BEBE70B5B74B1D8885421FD991
:102330005C888C421CD99C7B93B2B34A4FF05046C8
:1023400092685CB1012C0ED0022C12D0C1F1EF01C9
:1023500089B2C0EB001001EB001006E0C0F596302A
:1023600005FB110001E005FB010006EB40001352E4
:1023700070BDA0F23F10404280B2EAE7A249F022CD
:102380004FF4A073887330B1012804D00B804A80C9
:102390000020087170470A804B800120F9E710B5D2
:1023A000994C9A48217BFEF7B5FF9848617B8030B5
:1023B000FEF7B0FFBDE810400120FEF7A6BE92492F
:1023C0000873ECE790494873E9E78F4810B5407906
:1023D00040B1FFF7CAFCFF20FFF7F1FF0020BDE886
:1023E0001040EFE7FFF7D4FC0020FFF7E8FFFF20E5
:1023F000F5E710B5864A4FF4163100208318B3F87C
:102400000048A0F14053801C1C808842F6D310BDC8
:1024100010B57F4A4FF416310020A0F140538418C4
:102420001B88801CA4F800388842F6D310BD2DE923
:10243000F047DFF8D0C1DDE908A8ACF8000091460C
:10244000ACF802101A781E4610446F4A1288904267
:1024500006D970780844ACF802000020ACF80000FF
:10246000002529E0A9F1200111FB00507268002429
:1024700032F810701CE007FA04F0000409D5BCF82B
:1024800002005246284481B2BCF80000204480B2C9
:102490000BE0B8F1000F0ADBBCF80200424628440A
:1024A00081B2BCF80000204480B2FFF73CFF641CFE
:1024B0003078A042DFD86D1C7078A842D2D830782E
:1024C000BCF800100844ACF80000BDE8F0872DE926
:1024D000FC434C4DDDE9099828801F46144606460A
:1024E00069800BE00A2A0ED00D2A15D0CDE900989C
:1024F0003B4669882888641CFFF799FF2278002AE8
:10250000F0D1BDE8FC8368887978401C0844688075
:1025100060780D2802D02E80641CEFE70020288010
:10252000641CF9E730B54D7800241D8002E00B787B
:1025300023449CB210F8013B002BF8D1148030BD2D
:102540002DE9F84F9446304A0C46054611881F463F
:10255000481EA94200D885B2614501D81FFA80FC07
:102560005188481EA14200D884B2B94200D887B22F
:10257000654502D2ACEB050001E0A5EB0C000FFABB
:1025800080F9BC4201D2381B00E0E01B0FFA80F852
:102590004FF0FF30654501D2012100E00146009176
:1025A000BC4200D2012083464846C14501DCC8F147
:1025B000000000EBD070401006B2C9F1000A2146BD
:1025C00028460A9AFFF7AFFE654501D1BC4228D0E4
:1025D0003046564505DDA0EB08010EB200992944AE
:1025E0008DB24045EBDA15E0000C024000080240D5
:1025F00000000240000402400014024000180240A3
:10260000005001402800002048000020846801405C
:10261000005002D006EB090006B204EB0B0084B2B6
:10262000CDE7BDE8F88F2DE9F8411D46079C164619
:102630000F4680460B460094FFF782FF42462B462A
:10264000394610460094FFF77BFF32462B46394649
:1026500010460094FFF774FF2B4632461946404659
:102660000094FFF76DFFBDE8F8812DE9F04F0746B4
:10267000C2F101000FFA80FCC2EBC2304000984664
:102680000E464FF0010A0FFA80F900251446DDF8D6
:1026900024B05AE0BCF1000F09DB09F102000FFA87
:1026A00080F9641E0CEB090024B20FFA80FC0AF1D9
:1026B00002000FFA80FA6D1C0CEB0A000FFA80FC86
:1026C0002DB25FEAC8700DD0701B81B2381B80B28A
:1026D0005A46FFF728FE301B81B2781B80B25A465B
:1026E000FFF721FE5FEA88700DD5301B81B27819A3
:1026F00080B25A46FFF717FE701B81B2381980B2BC
:102700005A46FFF710FE5FEA48700DD5301981B2C6
:10271000781980B25A46FFF706FE701981B238194F
:1027200080B25A46FFF7FFFD5FEA08700DD53019F9
:1027300081B2781B80B25A46FFF7F5FD701981B25D
:10274000381B80B25A46FFF7EEFDA542A2DBBDE87A
:10275000F08F2DE9FC4F8146DDE90B451E46904682
:102760000F464A4570D0BE426ED02CB9424639461B
:1027700048460095FFF757FF4146C14501D9C84675
:102780008946B74202D930463E460746A8EB0900C3
:1027900000EBD070B4EB600F01DDC0F34F04F01B11
:1027A00000EBD070B4EB600F01DDC0F34F04A8EB79
:1027B0000400CDE9005082B209EB040B3B461FFA3E
:1027C0008BF01946FFF7BCFEA6EB040A27444A46E5
:1027D0001FFA8AF3B9B210460095FFF7B1FE4246E0
:1027E0001FFA8AF3B9B210460095FFF7A9FE0198C7
:1027F000334682B200951FFA8BF01946FFF7A0FE10
:102800003EB20FFA8BF022B28046012314463146C5
:102810000095FFF72AFF0198314607B20095022381
:1028200022463846FFF721FF0FFA8AF6384604237E
:10283000224631460095FFF718FF314640460823EF
:1028400022460095FFF711FFBDE8FC8F2DE9FC4FF4
:102850000446C2F101000FFA80F90120DDF82C8056
:102860000190C2EBC23040009A460F460FFA80FB3F
:102870000026154671E0B9F1000F09DB0BF10200EB
:102880000FFA80FB6D1E09EB0B002DB20FFA80F9D9
:10289000761C019836B2801C00B2019048440FFAB1
:1028A00080F95FEACA7013D0781BA11B8AB283B289
:1028B00081B2A0B2CDF80080FFF742FEB81B611BC9
:1028C0008AB283B281B2A0B2CDF80080FFF738FEA1
:1028D0005FEA8A7013D5781B83B281B2A019A2B2C5
:1028E00080B2CDF80080FFF72BFEB81B83B281B217
:1028F0006019A2B280B2CDF80080FFF721FE5FEA36
:102900004A7013D57819A1198AB283B281B2A0B2E4
:10291000CDF80080FFF714FEB81983B281B26019B8
:10292000A2B280B2CDF80080FFF70AFE5FEA0A701B
:1029300013D5781983B281B2A01BA2B280B2CDF8B0
:102940000080FFF7FDFDB819611B8AB283B281B226
:10295000A0B2CDF80080FFF7F3FDAE428BDB73E74A
:102960002DE9F8411D4617460C468046079E08E0B3
:1029700023463A46194640460096FFF7E1FD641C9F
:10298000A4B2AC42F4D96EE62DE9F84F8146DDE9F8
:102990000A451E4690460F464A4566D0BE4264D060
:1029A0002CB94246394648460095FFF7D9FF4146C3
:1029B000C14501D9C8468946B74202D930463E468C
:1029C0000746A8EB090000EBD070B4EB600F01DD07
:1029D000C0F34F04F01B00EBD070B4EB600F01DDCF
:1029E000C0F34F04A8EB040B09EB040A1FFA8BF2A7
:1029F0001FFA8AF0334639460095FFF7B1FF361BC0
:102A00002744B3B21FFA8AF2B9B248460095FFF7DD
:102A1000A7FFB3B2B9B21FFA8BF042460095FFF799
:102A20009FFF39B20FFA8AF022B20F468146012386
:102A300014460095FFF70AFF0FFA8BF83946022378
:102A4000224640460095FFF701FF761E36B240460B
:102A50000423224631460095FFF7F8FE31464846EA
:102A6000082322460095FFF7F1FEDAE52DE9FF4F36
:102A70000746C2F1010014460FFA80FCC2EBC430D5
:102A800040000FFA80F881B00E46081981B24FF06D
:102A900001090025B8B2049AFFF745FC301B81B24A
:102AA000B8B2049AFFF73FFC3819B1B280B2049A69
:102AB000FFF739FC381BB1B280B259E0BCF1000F0E
:102AC00009DB08F102000FFA80F8641E0CEB080025
:102AD00024B20FFA80FC09F102000FFA80F96D1C94
:102AE0000CEB09002DB20FFA80FC781906EB040AF2
:102AF00000901FFA8AF180B2049AFFF714FCA7EB4A
:102B0000050B1FFA8AF11FFA8BF0049AFFF70BFCF2
:102B10000098A6EB040A1FFA8AF180B2049AFFF724
:102B200002FC1FFA8AF11FFA8BF0049AFFF7FBFBF5
:102B3000381906EB050A00901FFA8AF180B2049A50
:102B4000FFF7F1FBA7EB040B1FFA8AF11FFA8BF0DA
:102B5000049AFFF7E8FB0098A6EB050A1FFA8AF132
:102B600080B2049AFFF7DFFB1FFA8AF11FFA8BF09D
:102B7000049AFFF7D8FBA542A0DB05B0E7E52DE9F5
:102B8000FE4F0746C2F1010014460FFA80F8C2EB6F
:102B9000C43040000FFA80FA0E46081981B29946F7
:102BA0004FF0010B0025B8B21A46FFF7BCFB301BF3
:102BB00081B2B8B24A46FFF7B6FB38190190B1B2FC
:102BC00080B24A46FFF7AFFBA7EB040CB1B21FFA85
:102BD0008CF04A46FFF7A7FB0198B3B282B2CDF85A
:102BE0000090B1B21FFA8CF042E0B8F1000F09DB9F
:102BF0000AF102000FFA80FA641E08EB0A0024B200
:102C00000FFA80F80BF102000FFA80FB6D1C08EB45
:102C10000B002DB20FFA80F8781982B20290781B5F
:102C2000CDE9009031198BB289B280B2FFF788FCF0
:102C30000198311B82B202988BB2CDF8009089B214
:102C400080B2FFF77DFC381B82B202903819CDE9C3
:102C5000009071198BB289B280B2FFF771FC0298B3
:102C6000711B82B201988BB2CDF8009089B280B20C
:102C7000FFF766FCA542B8DBBDE8FE8F0020704779
:102C80002DE9F04F97B0784C4FF6FF7ACDF810A0B1
:102C9000207818B1012017B0BDE8F08F00F0A8F837
:102CA0007248016841F0010101604FF002080722FB
:102CB000CDE910824FF0040BCDF848B0CDE91328D0
:102CC000CDF854801020CDF85880CDE907B04020D1
:102CD0004FF0010909900025CDE905954FF4C0702A
:102CE000CDE90A054FF40060CDE90C0580000E9097
:102CF00010A80F904E4605A8FDF7BCFFCDE9026570
:102D00000827CDE900675646CDF810A001E0401E27
:102D1000049020210120FEF7D8F810B10498002873
:102D2000F5D16846FEF75EF851480490411E0491C3
:102D300001D30846FAE7CDE90087CDF80890CDE940
:102D40000356C84601E0401E049020210120FEF7F2
:102D5000BCF810B104980028F5D16846FEF742F897
:102D60000320CDE900070297CDE9035601E0401E9C
:102D7000049020210120FEF7A8F810B10498002843
:102D8000F5D16846FEF72EF8CDE900B740F23120C4
:102D9000CDF80880CDE90306474601E0401E0490C7
:102DA00020210120FEF791F810B104980028F5D1F8
:102DB0006846FEF717F84FF42A70FEF731F80496CC
:102DC00001E0401E049020210120FEF77EF810B1A2
:102DD00004980028F5D14FF05040452100F8501FCD
:102DE0000078452802D02570002054E7277051E76D
:102DF0007CB5FFF743FF002835D10C2503240023C1
:102E00001A4660211B48CDE90045FEF70CFF002360
:102E10001A4601211848CDE90045FEF704FF0023BA
:102E20001A464CF203711548CDE90045FEF7FBFE4A
:102E300000231A464FF683711148CDE90045FEF78D
:102E4000F2FE00231A464FF63F010E48CDE9004539
:102E5000FEF7E9FE00231A4648F233110A48CDE98D
:102E60000045FEF7E0FE7CBD2C0000203838024013
:102E7000F0FE0F010004024000080240000C024076
:102E80000010024000140240001802401CB528B196
:102E9000032802D1FE48AFF300801CBD05210320AA
:102EA000CDE9000100231A464FF4E041F948FEF74E
:102EB000BAFE1CBD7CB50525F74E032438B10128A8
:102EC0000BD0032802D1F548AFF300807CBD00236E
:102ED0001A464FF4607130460CE000231A464FF456
:102EE00000613046CDE90045FEF79DFE0023EC4829
:102EF0001A46C021CDE90045FEF795FE7CBD1CB504
:102F00000522E84C032138B101280BD0032802D157
:102F1000E548AFF300801CBDCDE9001200231A463E
:102F2000642105E0CDE9001200231A464FF4E04188
:102F30002046FEF778FE1CBD1CB50622032138B1E1
:102F400001280CD0032802D1D848AFF300801CBD63
:102F5000CDE9001200231A463821D54806E0CDE914
:102F6000001200231A464FF4E051D248FEF75BFEF0
:102F70001CBD7CB50525CE4E032448B1012815D0D3
:102F8000022819D0032802D1CB48AFF300807CBDC2
:102F900000231A464FF480613046CDE90045FEF724
:102FA00042FE00231A460C21C24809E000231A46BB
:102FB0004FF46041304603E00023C0481A460D211B
:102FC000CDE90045FEF72FFE7CBD1CB5052203218F
:102FD00038B101280CD0032802D1B948AFF30080E2
:102FE0001CBDCDE9001200231A46E021B54805E0DA
:102FF000CDE9001200231A463821AD48FEF713FE32
:103000001CBD2DE9FF4F85B00446DDE912BA994693
:1030100016466846FEF7C5FAA948AB4F002584421C
:1030200008D1386840F4805038600698FFF7CDFF2B
:10303000ADF80450A048DFF890828442A8F104085B
:103040000AD1D8F8001041F48041C8F80010069861
:10305000FFF78FFFADF80450944884420AD1D8F8A6
:10306000001041F40041C8F800100698FFF764FF13
:10307000ADF804508C48844208D1386840F40050C0
:1030800038600698FFF73BFFADF804508348844250
:1030900008D1386840F4801038600698FFF70AFFBE
:1030A000ADF804507A48844208D1386840F40010E2
:1030B00038600698FFF7EAFEADF80450ADF80C90C2
:1030C000ADF800504FF40070ADF80EA0ADF802B0AE
:1030D000ADF80A0046B10121012E08D00220022ECF
:1030E00008D0032E0BD00EE0ADF8065004E0ADF88A
:1030F000065006E0ADF80600ADF8085003E0ADF864
:103100000600ADF80810208820F0400020806946B5
:103110002046FEF7C7F9208840F04000208009B023
:10312000BDE8F08F2DE9FC410446654800250F46B7
:103130004FF48276844205D1CDE900652023002238
:10314000FFF75FFF5C48844206D1CDE9006520238C
:1031500000223946FFF755FF5448844206D1CDE995
:103160000065202300223946FFF74BFF4E4884427A
:1031700006D1CDE90065202300223946FFF741FF43
:103180004648844206D1CDE9006520230022394615
:10319000FFF737FF3E48844206D1CDE90065202382
:1031A00000223946FFF72DFFBDE8FC812DE9FC41E7
:1031B000044643480025174688464FF482768442E9
:1031C00004D1CDE900652023FFF71BFF3A48844274
:1031D00006D1CDE9006520233A464146FFF711FFAD
:1031E0003248844206D1CDE9006520233A46414663
:1031F000FFF707FF2C48844206D1CDE90065202364
:103200003A464146FFF7FDFE2448844206D1CDE907
:10321000006520233A464146FFF7F3FE1C488442EE
:10322000C2D1CDE9006520233A464146FFF7E9FEC9
:10323000BAE72DE9FC470446DDE90A6520481F4648
:1032400090468946844205D1CDE9006513463A4649
:10325000FFF7D7FE1848844206D1CDE90065434602
:103260003A464946FFF7CDFE1048844206D1CDE9E3
:10327000006543463A464946FFF7C3FE0A48844282
:1032800026D1CDE9006543463A4649461EE0000096
:103290000054014000180240001402400050014058
:1032A000001C02400010024000340140003C00407D
:1032B00000040240000802400038004000200240A4
:1032C000003001400000024044380240FFF799FE00
:1032D0007748844206D1CDE9006543463A464946DF
:1032E000FFF78FFE7348844206D1CDE9006543465F
:1032F0003A464946FFF785FEBDE8FC877FB50D00DD
:10330000044620D06846FDF743F86B48844208D055
:103310006A48844205D06648844202D065488442A7
:1033200001D1039900E0029900200124421C04FA13
:1033300002F3B1FBF3F3AB4202D8C00004B070BD9E
:10334000D0B20828F2D33820F8E702880388C2F305
:10335000C02223F0400303800129018808D021F412
:1033600000610180018841F04001018010467047F2
:1033700041F40061F5E730B50488640614D504898A
:10338000A407FCD004892406F9D400240AE00D5DCA
:1033900085810589AD07FCD005892D06F9D485897D
:1033A0001555641C9C42F2D330BD10B503885B06F2
:1033B00013D503899B07FCD003891B06F9D400238E
:1033C00009E0CC5C84810489A407FCD0048924062C
:1033D000F9D484895B1C9342F3D310BD30B50488C3
:1033E000640613D50489A407FCD004892406F9D403
:1033F000002409E082810589AD07FCD005892D06EE
:10340000F9D485890D55641C9C42F3D330BD30B589
:103410000488640616D50489A407FCD00489240610
:10342000F9D400240CE031F8145085810589AD07EA
:10343000FCD005892D06F9D4858922F81450641C26
:103440009C42F0D330BD10B503885B0614D50389C8
:103450009B07FCD003891B06F9D400230AE031F84E
:10346000134084810489A407FCD004892406F9D47C
:1034700084895B1C9342F2D310BD30B50488640686
:1034800014D50489A407FCD004892406F9D40024A7
:103490000AE082810589AD07FCD005892D06F9D4A3
:1034A000858921F81450641C9C42F2D330BD000081
:1034B0000050014000540140003001400034014000
:1034C00010B58AB00446002001218DF81410AF4ACF
:1034D0008DF80500AE490490039002908DF8040029
:1034E000944203D10A6842F480720CE0A94A9442E3
:1034F00003D10A6842F4007205E0A74A944204D15D
:103500000A6842F480620A600090089006904FF4C6
:10351000803007904FF44070099006A8FEF759F9E3
:1035200069462046FEF72AF9A06840F00100A06035
:103530000AB010BD1CB501230222CDE900230023EF
:103540000322FEF758FB1CBD9049884202D09149E6
:10355000884202D12021914804E08F49884202D15B
:1035600020218F48E6E770478849884202D0894980
:10357000884202D10821894804E08749884202D163
:1035800010218748D6E7704708218448D2E70421F4
:103590008248CFE702218148CCE701217F48C9E773
:1035A0007A49884202D07B49884202D102217D4873
:1035B00004E07949884202D108217948BAE7704786
:1035C0007249884202D07349884202D1012175486C
:1035D00004E07149884202D101157148AAE7704799
:1035E0006A49884202D06B49884202D180216E48E4
:1035F00004E06949884202D1411569489AE7704759
:103600006249884202D06349884202D1402166481B
:1036100004E06149884202D1811561488AE7704718
:103620005A49884202D05B49884202D120215E4833
:1036300004E05949884202D1802159487AE770470D
:103640005249884202D05349884202D1102156483B
:1036500004E05149884202D1402151486AE770474D
:103660000821514866E704214F4863E702214E488C
:1036700060E701214C485DE710B504464A48F9B1BE
:1036800001291FD002291FD003291FD0042921D0CE
:10369000052923D0062925D0072927D0082929D094
:1036A00009292BD03D480A290AD00B290AD00C2918
:1036B0000AD00D290AD00E2924D00F2926D028E0BF
:1036C000012104E0022102E0042100E00821FFF7CB
:1036D00031FF1EE02046FFF7B3FF1AE02046FFF758
:1036E0009FFF16E02046FFF78BFF12E02046FFF712
:1036F00077FF0EE02046FFF763FF0AE02046FFF762
:103700004FFF06E02046FFF72FFF02E02046FFF7BD
:103710001BFF2046BDE81040D2E610B50123044649
:103720001A46FEF7A0F8A06840F08040A06020682C
:103730008007FCD5E06C80B210BD1448D0F80413AB
:1037400041F48001C0F8041370471048D0F8041306
:1037500021F48001C0F80413704710B50446052316
:1037600001221221FEF77FF8A06840F08040A0609F
:1037700020688007FCD5E06C43F29031484340F666
:10378000FF71B0FBF1F080B210BD000000200140DD
:10379000443802400021014000220140000802405C
:1037A00000140240000402400000024008B500F08E
:1037B000E2F8FEF78EF9364C00212046FFF75CFF59
:1037C000FEF76BFD0320FEF7D9FDFEF7CEFAA1460A
:1037D000304C314E4FF0000A4FF4A07BD0464F469C
:1037E0004FF44865C4F800A000213846FFF795FF64
:1037F0000146206846F82010401C2060A842F3DBF8
:103800004FF6FF7000210090F0235F465A460846AD
:10381000FFF7A6F84FF47845F0233A4678210020C8
:103820000095FEF700FF002177233A4608460095F1
:10383000FEF7F9FE4046C4F800800A25B84678270E
:1038400000FB05F1642256F8211000235143CA17EA
:1038500001EB125107EB213109B2012200B2FFF74F
:1038600005F92068642200FB05F1002356F82110B9
:1038700000B25143CA1701EB1251091309B20122D8
:10388000FFF7F4F82068401C20604045D8DBA5E72E
:103890000020014030000020580000207047FEE763
:1038A000FEE7FEE7FEE7704770477047704710B5C8
:1038B000FEF702F910BD00001CB500215B4A009123
:1038C0000191106840F4803010604FF4A0431068FC
:1038D00000F4003001900098401C0090019810B94D
:1038E00000989842F3D11068800342D501200190DE
:1038F0004E484030016841F0805101604C490868F1
:1039000040F4404008604948083003680360036899
:1039100043F400430360036843F4A0530360041FAF
:10392000444B2360136843F08073136013689B015A
:10393000FCD50A6842F480320A604A68D203FCD59A
:103940000A6842F400320A604A689203FCD53A4A97
:1039500040F205711160016821F003010160016806
:1039600041F0020101600168C1F381010229FAD12D
:103970001CBD01911CBD314810B5016841F47001B6
:1039800001602A48016841F001010160274A0021D5
:103990000832116002682A4B1A400260031D294A4E
:1039A0001A60026822F48022026020480C30016014
:1039B000FFF782FF21494FF000608039086010BD99
:1039C00070B51A4D083528681F4B204910F00C00BF
:1039D00004D05E10042803D0082803D00B601BE03D
:1039E0000E6019E0114A121D1068C0F3805410686F
:1039F00000F03F0014B1B6FBF0F001E0B3FBF0F0D3
:103A000013681268C3F388135843C2F30142521C6F
:103A10005200B0FBF2F0086028680C4AC0F30310B3
:103A2000121D105C0A68C2400A6070BD0038024076
:103A300000700040085A4007003C024088ED00E05A
:103A4000FFFFF6FE103000240024F40034000020B4
:103A5000064C074D06E0E06840F0010394E80700DB
:103A600098471034AC42F6D3FCF7A4FBB03A0008F8
:103A7000D03A000802E008C8121F08C1002AFAD193
:103A800070477047002001E001C1121F002AFBD1DE
:103A9000704700000F0000000F000000FF00000052
:103AA0000F0000000F0000000F00000000000000E9
:103AB000D03A00080000002048000000743A0008D6
:103AC000183B00084800002010360000843A000827
:103AD00000000000010203040102030406070809B4
:103AE00000000000000000000000000000000000D6
:103AF00000000000000000000000000000000000C6
:103B0000000000000095BA0A00000000000000005C
:083B1000010203040607080985
:04000005080001AD41
:00000001FF
